:020000040800F2
:1000000028CD0120990200088F6A0008C924000841
:100010008D6A000821110008619F0008000000009F
:100020000000000000000000000000009F8A00089F
:1000300025170008000000005D7300089D8D000872
:10004000B3020008B3020008B3020008B3020008BC
:10005000B3020008B3020008B3020008B3020008AC
:10006000B3020008B3020008B3020008B30200089C
:10007000B3020008B3020008B3020008B30200088C
:10008000B3020008B3020008B3020008B30200087C
:10009000B3020008B3020008B3020008B30200086C
:1000A000B3020008B3020008B3020008B30200085C
:1000B000B3020008B3020008FD8D0008B302000877
:1000C000B3020008B3020008B3020008B30200083C
:1000D000B3020008599C0008BD9C00081D9D000843
:1000E000B3020008B3020008B3020008B30200081C
:1000F000B3020008B3020008B3020008B30200080C
:10010000B302000881750008B3020008B3020008BA
:10011000B3020008B3020008B3020008398E0008D9
:10012000B3020008B3020008B3020008B3020008DB
:10013000B3020008B3020008B3020008B3020008CB
:10014000B3020008B3020008B3020008B3020008BB
:10015000B3020008B3020008B3020008B3020008AB
:10016000B3020008B3020008B3020008B30200089B
:10017000B3020008B3020008B3020008B30200088B
:10018000B3020008B302000800F002F800F06DF8B6
:100190000AA090E8000C82448344AAF10107DA45E2
:1001A00001D100F062F8AFF2090EBAE80F0013F0C7
:1001B000010F18BFFB1A43F00103184744E2000087
:1001C00064E200000A444FF0000C10F8013B13F009
:1001D000070408BF10F8014B1D1108BF10F8015BA0
:1001E000641E05D010F8016B641E01F8016BF9D193
:1001F00013F0080F1EBF10F8014BAD1C0C1B09D1EA
:100200006D1E58BF01F801CBFAD505E014F8016B5B
:1002100001F8016B6D1EF9D59142D6D370470000ED
:100220000023002400250026103A28BF78C1FBD8FF
:10023000520728BF30C148BF0B607047642900F0E7
:10024000BF80752900F0BC80782900F020816329E7
:1002500000F04583732900F04A83002070471FB5E2
:100260000CF005FB1FBD10B510BD00F095FB11464D
:10027000FFF7F5FF0AF0E8FA00F0B3FB03B4FFF76D
:10028000F2FF03BC0AF028F830BF72B6704762B6BE
:10029000704780F30888704709488047094800473D
:1002A000FEE7FEE7FEE7FEE7FEE7FEE7FEE7FEE726
:1002B000FEE7FEE704480549054A064B7047000083
:1002C000A18D00088901000828C7012028CD012040
:1002D00028C9012028C90120704700000FB4044933
:1002E00010B503AA029800F007FB10BC5DF814FBE0
:1002F000880000200FB41CB5084B06AA7B44694651
:100300000090059800F0C9FA04460020694600F004
:10031000D7FA20461CBC5DF814FB0000C1050000A4
:1003200070B5044685690068C10601D5302600E035
:100330002026C00707D070BDD4E901213046904780
:10034000206A401C20626D1EF6D570BD70B5044653
:1003500085690078C00707D170BDD4E9012120204C
:100360009047206A401C20626D1EF6D570BD70B5A6
:100370000C460546012A05D02878800600D5EA6992
:10038000002302E0012305E05B1C934202D2E05C03
:100390000028F9D1A869E618C01AA861286A18448B
:1003A00028622846FFF7BCFF04E0D5E9012114F8D4
:1003B000010B9047B442F8D32846FFF7C7FF70BD42
:1003C0002DE9F0410646002410687529314616A52E
:1003D00010D0AFF30080002802DA404213A507E0F6
:1003E00031688A0701D512A502E0490704D511A595
:1003F000012401E0AFF3008000210A2206F1240766
:1004000009E0B0FBF2FCB0FBF2F302FB1C00303061
:1004100078541846491C0028F3D123462A46304612
:10042000BDE8F04100F0DBB9000000002D00000045
:100430002B00000020000000F0B40D4601880905E3
:1004400002D5214C7C4402E01F4C7C440E34002138
:1004500000F1240608E002F00F071209E75D42EA06
:1004600003721B097754491C52EA0307F3D102783F
:100470000023120704D5702D06D009B102231134D0
:100480002246F0BC00F0ABB901231034F8E770B598
:1004900004460D4621461068AFF300800246294607
:1004A0002046BDE870400023C6E7D21D22F00703B6
:1004B000D3E90023C0E70368126843F02003036018
:1004C0000823C3610023B7E7F0DC00002DE9F05FEB
:1004D000894604464FF0000ADFF874B1FB44C0F8C7
:1004E00020A02046E1688847002874D0252806D03F
:1004F000D4E901219047206A401C2062F1E70026E0
:100500005F462046E16888472028054607DB312DF5
:1005100005D2781910F8200C08B10643F1E7B007AE
:1005200001D526F00406C4F81CA00027C4F818A0C2
:100530002A2D09D0284609F0C8FE38B304EB8708F5
:10054000303DC8F8185019E059F8041B204604EB58
:1005500087029161E1688847012F054618D1E0695B
:10056000002820DA26F020061DE0D8F8180000EB5D
:10057000800005EB40003038C8F818002046E168DC
:100580008847054609F0A1FE0028EED1012F0AD0C8
:100590002E2D08D12046E16888477F1C0546022F92
:1005A00046F02006C4DBA069002803DA404246F08A
:1005B0000106A061F00701D026F010066C2D0BD0CB
:1005C000682D09D04C2D39D06A2D35D0742D35D0F9
:1005D0007A2D33D016E038E0E1682F462046884770
:1005E000B842054609D16C2F26D04FF48060E168EF
:1005F000064320468847054604E06C2F1AD04FF486
:10060000807006430DB3A5F14100192802D82035AA
:1006100046F400664A462946204626604E46FFF7C5
:100620000DFE80B101280BD0F61D26F0070000F169
:10063000080956E74020E4E78020D8E70020D6E705
:1006400006F104094DE7284652E7206ABDE8F09F0D
:1006500080DC000030B505460B462A4613F8014BF6
:1006600012F8010B08B1A042F8D01CB1002802D04A
:100670006D1CF1E7284630BD10B5431C02E010F8B0
:10068000011B71B18107FAD14FF0013202C88C1AF7
:100690008C4314EAC211F9D0C01A0A0603D0C01E56
:1006A00010BDC01A10BD0A0401D0801E10BD090281
:1006B000FCD0401E10BD032A40F2308010F0030C25
:1006C00000F0158011F8013BBCF1020F624498BFA5
:1006D00011F801CB00F8013B38BF11F8013BA2F142
:1006E000040298BF00F801CB38BF00F8013B11F0BD
:1006F000030300F01381083AC0F0088051F8043B6E
:10070000083A51F804CBA0E80810F5E7121D5CBFC9
:1007100051F8043B40F8043BAFF30080D20724BFFC
:1007200011F8013B11F801CB48BF11F8012B24BF90
:1007300000F8013B00F801CB48BF00F8012B7047DF
:100740004FF0013C50F8042B51F8043B9A4221D160
:10075000A2EB0C03934313EACC1317D150F8042BEC
:1007600051F8043B9A4215D1A2EB0C03934313EAD0
:10077000CC130BD150F8042B51F8043B9A4209D109
:10078000A2EB0C03934313EACC13DBD04FF0000031
:10079000704700BFD01A01BAB1FA81F101F0180117
:1007A00022FA01F0CB40C1F12001DBB2C0B2C01A85
:1007B0002CFA01F3D11A914311EAC311E6D1704723
:1007C000704770477047704710B500F0D9F800685F
:1007D00010BD10B5044600F0D3F8046010BD2DE93B
:1007E000F0470D4699469246044600F124080168F8
:1007F000880604D5E06921F01001216000E00120A5
:10080000A84201DD471B00E00027A1697A1902EB2D
:100810000900081AA0612078C00602D42046FFF71C
:100820007FFD002608E0D4E901211AF80600904770
:10083000206A401C761C20624E45F4DB2078C006FE
:100840000AD52046FFF76CFD06E0D4E901213020EF
:100850009047206A401C2062381EA7F10107F4DC93
:1008600007E0D4E9012118F805009047206A401CF0
:100870002062281EA5F10105F3DC2046FFF766FD86
:100880002078000602D50220BDE8F0870120FBE7B2
:1008900001694A1C02610878704700B58FB0CDE944
:1008A00001310021059105497944CDE90310114634
:1008B0006846FFF70BFE0FB000BD0000E5FFFFFF2D
:1008C0000A6802F8010B0A60704710B5436913B15A
:1008D000AFF3008001E0FFF74AFD012010BD127860
:1008E00000F124010A7000224A700122EDE711682C
:1008F0004FF0FF32E9E70000074B70B50D467B442F
:10090000FFF7CBFF0446284600F03EF810B14FF049
:10091000FF3070BD204670BDF79E000010B5203A34
:10092000C0F00B80B1E81850203AA0E81850B1E8A8
:100930001850A0E81850BFF4F5AF5FEA027C24BF5E
:10094000B1E81850A0E8185044BF18C918C0BDE855
:1009500010405FEA827C24BF51F8043B40F8043B1E
:1009600008BF7047D20728BF31F8023B48BF11F8D3
:10097000012B28BF20F8023B48BF00F8012B70472D
:1009800000487047C4C60120007B00F0800070471B
:1009900000487047C4C601207546FFF7F9FFAE4610
:1009A00005006946534620F00700854618B020B57B
:1009B000FFF780FCBDE820404FF000064FF0000735
:1009C0004FF000084FF0000B21F00701AC46ACE8F7
:1009D000C009ACE8C009ACE8C009ACE8C0098D4664
:1009E00070470446AFF300802046FFF747FC000045
:1009F0002DE9F05F2F4E8A46054600247168204697
:100A0000884796F82000DFF8B0B0000641D5B1461F
:100A1000B6890021C1EB01130AEB4303B9F816C0F4
:100A2000002003F11E0200BF00EB800705EB071753
:100A300007F15008464513D2BE4211D994450FD252
:100A40009C450DD901EB41021044401C10F0FF04FD
:100A50000AD09BF800005E46A0420AD1002425E09F
:100A6000401C80B20328DFD3491C89B20529D1D3A9
:100A70001CE0401EC2B200235146284600F01EF87A
:100A8000601EC2B2347001235146284600F016F8A9
:100A90000CE09BF800005E4640B1401EC2B200234D
:100AA0005146284600F00AF8002030702046BDE884
:100AB000F09F0000AC000020000000202DE9F8436A
:100AC000804603200F46B2FBF0F1B2FBF0F614466D
:100AD00000FB1145102A47D8BBB1012C44D04FF47C
:100AE000FC600090C6EB061007EB400101F11C0012
:100AF00083B205EB850208EB021000F14E02491C9F
:100B0000401C92B289B280B218E0012C2CD04FF672
:100B1000FF700090C6EB061007EB400000F11C01CF
:100B20008BB205EB850208EB021101F14E02401C6D
:100B30001FFA80FC491C88B292B2614602F0C2F8EA
:100B400050200090094805EB8503406850F82420A8
:100B5000C6EB061007EB4000C01D81B208EB031086
:100B600080B2102308F0E2F8BDE8F883000000200E
:100B70002DE9FE4F0C46DFF80C814FF47841DFF889
:100B800008910546A8F80010C9F804204FF6FF7038
:100B900004F1960605F1F0070090B3B2BAB221460F
:100BA000284602F08FF8B3B2BAB22146284601F0C7
:100BB00089FF05F1A00082B25038B3B280B221465D
:100BC00001F080FF04F13C0083B21E3881B2BAB25A
:100BD000284601F077FF04F1780083B21E3881B215
:100BE000BAB2284601F06EFF1F21A8F800100026B7
:100BF0000327C8464FF0500B01E0012E23D0B6FB6F
:100C0000F7F0C0EB001004EB4000C01D81B2B6FB52
:100C1000F7F007FB1060CDF800B0D8F8042000EB27
:100C2000800005EB001080B252F82620102308F057
:100C30007DF84FF000094FF0100A761CB6B20F2E67
:100C4000DBD3BDE8FE8FB6FBF7F0C0EB001004EB82
:100C50004000C01D81B2B6FBF7F0D8F804C007FB16
:100C60001060DCF804C000EB800005EB0010CDE95B
:100C700000CA801C80B21E235022CDF8089008F0D4
:100C80000BF8DAE78C0000200000002001F03EBCE9
:100C90002DE9F0410D460146002004464E1908E0BA
:100CA0000702301B401E80B200F007F8641C384475
:100CB000E4B2AC42F4D3BDE8F08110B5044601F0D3
:100CC000CBFC200AA02101EB4000C0B201F094FC53
:100CD00001F004FDE0B201F08FFC01F0FFFC01F037
:100CE000BBFCA12001F088FC01F0F8FC002001F021
:100CF0004FFC044601F0D0FC204610BD2DE9F04128
:100D000016460D460746002409E0E00025FA00F0EB
:100D1000C1B2381980B200F006F8641CE4B2B442E3
:100D2000F3D3BDE8F08170B50D46044601F094FCA4
:100D3000200AA02101EB4000C0B201F05DFC01F0EF
:100D4000CDFCE0B201F058FC01F0C8FC284601F0EF
:100D500053FC01F0C3FC01F09FFCBDE870400A2089
:100D600009F00ABB2DE9F84F0027DFF894A2A54D42
:100D7000DFF89492BB464FF6FF744FF0F008052F52
:100D800068D2DFE807F0033268AFF000761C009409
:100D9000F6B22A88A0236421002001F093FF1023DB
:100DA0009AA264210020CDF8008007F0BFFF06F072
:100DB0008CF800284CD10120CAF8A00206F067F890
:100DC000CAF8A0B2002843D100942A88A023782131
:100DD00001F078FF102390A278210020CDF8008048
:100DE00007F0A4FF002601272DE0761C0094F6B240
:100DF0002A88A0236421002001F064FF102389A227
:100E000064210020CDF8008007F090FF06F05DF827
:100E1000F0B90120CAF8A002022006F038F8CAF89A
:100E2000A0B2A8B900942A88A0237821002001F05C
:100E300049FF102378A278210020CDF8008007F028
:100E400075FF002602274FF4C87009F095FA96E75F
:100E500007F0B6FE60E000942A88A02364210020F9
:100E600001F030FF102374A264210020CDF800802F
:100E700007F05CFF06F0BCF800942A8807004FF0EA
:100E8000A00319D06421002001F01CFF10236EA2E2
:100E900064210020CDF8008007F048FF384607F0B5
:100EA0008FFE002637464FF4966009F065FA4FF43E
:100EB000C87009F061FA69E77821002001F002FFAB
:100EC000102368A278210020CDF8008007F02EFFC3
:100ED0004FF4966009F050FA4FF4C87009F04CFADC
:100EE000052E1FD000942A88A0236421002001F041
:100EF000E9FE4746102361A264210020CDF800805E
:100F000007F014FF06F000F9A8B1002707F058FE1B
:100F10004FF4966009F030FA4FF4C87009F02CFADB
:100F2000052E94D100942A88A0236421002001F08A
:100F3000C9FEBDE8F88F00942A88A02378210020FC
:100F400001F0C0FE102351A278210020009707F085
:100F5000EDFE4FF4966009F00FFA4FF4C87009F0F7
:100F60000BFA052EDED000942A88A02364210020ED
:100F700001F0A8FE4746102349A264210020CDF8C5
:100F8000008007F0D3FE10234CA2782100200097A8
:100F900007F0CCFE4FEA090700F0ECFF0146388865
:100FA0008842F9D9022006F033F908B100274FE74B
:100FB00000942A88A0236421002001F083FE1023DE
:100FC00042A278210020CDF8008007F0AFFE434810
:100FD00006F048F9102000904048B9F80010801E33
:100FE000032340880A1A5021382005F097FC40F26C
:100FF000DC5009F0C1F9A023F022009495E700002D
:101000000080424290040020BC030020C7EBB0B433
:10101000D6B8CEC600000000D6B8CEC6D5FDB3A364
:1010200000000000C7EBB0B4D4D9B0B4D2BBB4CE8A
:10103000D6B8CEC600000000B6D4B1C8C1BDB4CE8B
:10104000D6B8CEC600000000B6D4B1C8CAA7B0DC7E
:10105000A3ACC7EBD6D8D0C2C2BCC8EBD6B8CEC6FC
:1010600000000000B6D4B1C8B3C9B9A62CC1BDB444
:10107000CED6B8CEC6D2BBD1F9000000C9FAB3C9EA
:10108000D6B8CEC6C4A3B0E500000000C9FAB3C903
:10109000D6B8CEC6C4A3B0E5B3C9B9A60000000057
:1010A000C7EBCAE4C8EBB4A2B4E649442CB0B445DB
:1010B0006E746572B1A3B4E600000000303D3C20C0
:1010C0004944203C3D32393900000000C2BCC8EB25
:1010D000D6B8CEC6B3C9B9A60000000002000020F1
:1010E0007CB50121202006F03BF901208DF8040099
:1010F00000208DF8060003208DF805000220074D22
:101100004FF480748DF8070000946946284600F07B
:101110006AFF2146284600F0C7FF7CBD001402404C
:10112000FEE7000070B50F4C0025C4F880520E4851
:10113000016821F440010160016841F4800101600F
:10114000022004F5207409F031F90848C0F8AC52C7
:10115000022009F02BF901202060022009F026F975
:10116000256070BD00804042001402400080424271
:101170001CB50121222006F0F3F801248DF804406B
:1011800000208DF8060000948DF807406946064857
:1011900000F029FFE00200908DF804406946034802
:1011A00000F021FF1CBD00000004024000140240BA
:1011B00070B50F4C0025C4F880520E48016821F428
:1011C00040010160016841F480010160022004F5E2
:1011D000207409F0EBF808480126C0F8AC62022040
:1011E00009F0E4F82660022009F0E0F8256070BDFF
:1011F0000080404200140240008042422DE9F04746
:10120000824619480024016821F440010160016808
:1012100001601E2009F0CAF80025144EDFF8509036
:101220002F464FF0010800BFC6F88072022009F077
:10123000BDF8C6F880826006040ED9F82C0208B109
:10124000641CE4B2022009F0B1F86D1CEDB2082D67
:10125000EAD3BAF1000F04D0FFF764FF2046BDE8DF
:10126000F087FFF7A5FFF9E7001402400080404235
:10127000008042422DE9F04706461548016821F4F6
:1012800040010160016841F480010160114D0027B7
:10129000C5F88072022009F089F8DFF83C8000244C
:1012A0004FF00109F109C8F8AC127006060EC5F836
:1012B0008092022009F07AF8C5F88072022009F0C5
:1012C00075F8641CE4B2082CECD3BDE8F08700008C
:1012D00000140240008040420080424270B50F4836
:1012E000016821F440010160016841F4800101605E
:1012F0000B4C0120C4F8AC020A4DC5F880021E2038
:1013000004F52B7405F5207509F050F800262660C9
:10131000022009F04BF82E6070BD0000001402405E
:10132000008042420080404270B50D48016821F4BF
:1013300040010160016841F4800101600948012514
:10134000C0F880521E2009F031F8074C0020C4F884
:10135000AC02022004F52B7409F028F8256070BD5A
:1013600000140240008040420080424270B51148A3
:101370000024016821F440010160016801600E4E03
:101380000120C6F8AC020D4DC5F8800207E0641CD0
:10139000E4B2FA2C03D9FFF7C7FF012070BD022089
:1013A00009F004F8D6F82C020028F0D1C5F8800224
:1013B00070BD0000001402400080424200804042A4
:1013C00070B500254FF4803405E0802006F0C6F8A3
:1013D00008B144B101E0641EF7D240F2FF5006F0BC
:1013E00095F8284670BD032070BD000010B5144963
:1013F0000446086810F0450FFBD0042006F0AEF854
:1014000020B1042006F082F8032010BD012006F070
:10141000A5F820B1012006F079F8012010BD084898
:1014200024380068A04201D0102010BD40F2FF50C7
:1014300006F06CF802482038006800F0080010BD83
:10144000342C014010B500244FF480310E4A09E0DD
:10145000106810F0450F05D009B1400705D50324E9
:1014600004200CE0491EF3D2F7E7012006F076F8DD
:1014700018B10124204606F049F840F2FF5006F06A
:1014800045F8204610BD0000342C014010B50A4933
:10149000086810F0450FFBD0042006F05FF820B17B
:1014A000042006F033F8032010BD40F2FF5006F090
:1014B0002DF8002010BD0000342C014070B50D4601
:1014C0001C4906460024086810F0450FFBD0042094
:1014D00006F044F820B1042006F018F8032070BD8F
:1014E000012006F03BF820B1012006F00FF80120A2
:1014F00070BD104824380068B04212D140F2FF504D
:1015000006F004F80B482038026812F4604F03D04C
:10151000900404D5132070BD100C288007E05004FF
:1015200001D5102070BD100401D50F2070BD2046DC
:1015300070BD0000342C014010B500244FF4803100
:101540000B4809E0026812F0450F05D009B15007B9
:1015500005D50324042006E0491EF3D2F7E7500620
:1015600003D50024402005F0D1FF204610BD000027
:10157000342C01400029016802D041F0010101E052
:1015800021F00101016070472DE9F043016821F06D
:10159000010101600021016041608160C160016161
:1015A000212141613C493C4A3D251039904202D1FC
:1015B0008D60BDE8F083384A4FF47466183290426B
:1015C00001D18E60F5E7344A4FF4741730329042FF
:1015D00001D18F60EDE7304A4FF0746C4832904291
:1015E00002D1C1F808C0E4E72B4B2C4A6033984283
:1015F00001D1CA60DDE7284C294B7834A04201D1E3
:10160000CB60D6E7DFF89080264C08F19008404583
:1016100001D1CC60CDE7DFF880804FF03D5908F173
:10162000A808404502D1C1F80C90C2E71E49DFF876
:1016300078800839404501D10D60BAE71A4D183558
:10164000A84201D10E60B4E7174D3035A84201D150
:101650000F60AEE7144D4835A84202D1C1F800C072
:10166000A7E7114D10496035091FA84201D10A6052
:101670009FE70D4A7832904201D10B6099E70A4A00
:101680009032904201D10C6093E7074AA832904211
:101690008FD1C1F800908CE7106002403D0000201F
:1016A000400F002000003D20106402400029016826
:1016B00002D041F0200101E021F0200101607047DB
:1016C000014600200968C90700D0012070470000CA
:1016D00030B50368124ACC6813400A682243D1E946
:1016E00005452C432243CC6922430C6A22434C6AB1
:1016F00022438C6A22434C6B22438C6B22431A4355
:101700000260426922F00703D1E90B2422431A4305
:1017100042610A6942604A6882608968C16030BD7E
:101720003F801CF070470000F8B5374D4FF6FF764C
:1017300000962A88A0236421002001F0C3FAF02437
:10174000102332A264210020009407F0EFFA102346
:1017500031A278210020009407F0E8FA102334A287
:101760008C210020009407F0E1FA322008F004FEFA
:10177000334AAA210020FFF7FBF900F0FBFBB0423F
:101780001DD0B0F57F4F2CD0012105F037FB58B3A9
:1017900007F016FA4FF4966008F0EEFD284842383C
:1017A00005F060FD102000902549264844390323A8
:1017B00000884988421A5021382005F0AFF8009679
:1017C0002A88A0236421002001F07CFA322008F04E
:1017D000D3FDBDE8F8401A4AAA213C3A0020FFF7A1
:1017E000C7B905F03AFBD2E700962A88A0237821F2
:1017F000002001F067FA102313A28C21002000942E
:1018000007F094FAC6E7000090040020C9BEB3FDBB
:10181000D6B8CEC600000000C7EBCAE4C8EBD6B805
:10182000CEC64944B0B4456E746572B7A2CBCD0044
:10183000303D3C204944203C3D3239390000000015
:1018400044000020BC030020C9BEB3FDD6B8CEC6FC
:10185000B3C9B9A60000000021283CD2DFE800F09F
:1018600011131517191B1D1F212325273B3B3B3B3C
:1018700027293B3B3B2B3B3B2D2F3133353B3B3724
:10188000390016A0704716A0704719A070471DA018
:10189000704721A0704728A070472FA0704735A03F
:1018A000704742A0704744A0704747A070474AA0C5
:1018B00070474DA0704750A0704758A070475BA07C
:1018C00070475DA0704760A0704764A0704768A033
:1018D00070476AA070476CA0704700004F4B000033
:1018E000CAFDBEDDB0FCBDD3CAD5B4EDCEF3000059
:1018F000B4ABB8D0C6F7C9CFC3BBD3D0CAD6D6B85D
:1019000000000000C2BCC8EBD6B8CEC6CDBCCFF13B
:10191000CAA7B0DC00000000D6B8CEC6CDBCCFF15F
:10192000CCABB8C9A1A2CCABB5ADB6F8C9FAB2BBC5
:10193000B3C9CCD8D5F70000D6B8CEC6CDBCCFF150
:10194000CCABCAAAA1A2CCABBAFDB6F8C9FAB2BB5D
:10195000B3C9CCD8D5F70000D6B8CEC6CDBCCFF130
:10196000CCABC2D2B6F8C9FAB2BBB3C9CCD8D5F7A2
:1019700000000000D6B8CEC6CDBCCFF1D5FDB3A3D4
:10198000A3ACB5ABCCD8D5F7B5E3CCABC9D9A3A83C
:10199000BBF2C3E6BBFDCCABD0A1A3A9B6F8C9FA94
:1019A000B2BBB3C9CCD8D5F700000000D6B8CEC6BC
:1019B000B2BBC6A5C5E40000C3BBCBD1CBF7B5BD58
:1019C000D6B8CEC600000000CCD8D5F7BACFB2A2A8
:1019D000CAA7B0DC00000000C9BEB3FDC4A3B0E5D7
:1019E000CAA7B0DC00000000C7E5BFD5D6B8CEC698
:1019F000BFE2CAA7B0DC0000BBBAB3E5C7F8C4DADF
:101A0000C3BBD3D0D3D0D0A7D4ADCABCCDBCB6F85D
:101A1000C9FAB2BBB3C9CDBCCFF10000B6C1D0B4D6
:101A200020464C41534820B3F6B4ED00CEB4B6A8DE
:101A3000D2E5B4EDCEF30000CEDED0A7BCC4B4E650
:101A4000C6F7BAC500000000BCC4B4E6C6F7C9E8D2
:101A5000B6A8C4DAC8DDB4EDCEF30000BCC7CAC274
:101A6000B1BED2B3C2EBD6B8B6A8B4EDCEF3000087
:101A7000D6B8CEC6BFE2C2FA00000000B5D8D6B7CD
:101A8000B4EDCEF300000000C4A3BFE9B7B5BBD8E6
:101A9000C8B7C8CFC2EBD3D0CEF300008000A0F10E
:101AA000C0400029016802D041F0010101E0024A72
:101AB0001140016070470000FEFF0F0010B5D0E933
:101AC00001121143D0E903231A4311434269114320
:101AD00082691143C2691143026A1143426A114388
:101AE000826A1143C26A1143026B11430268920079
:101AF000A2F1C04211608168082907D101688900FC
:101B0000A1F1C0410A6842F040020A60416BD1E98C
:101B1000002342EA03128B688C891B0243EA0443C8
:101B20001A430B8A42EA03520B7D896942EA036237
:101B30000A4301688900A1F1C0414A60C16AB1F558
:101B4000804F08D000686FF070418000A0F1C04065
:101B5000C0F8041110BD816BD1E9002342EA0312E1
:101B60008B680C8A1B0243EA04531A430B7D896974
:101B700042EA036200680A438000A0F1C040C0F856
:101B8000042110BDFEB50121062005F0E9FB02206D
:101B9000002401908DF808408DF80A4003208DF84C
:101BA000090001258DF80B5001A9254800F01BFA0A
:101BB000680301908DF8085001A9224800F013FA3B
:101BC000FFF7D6FA204EC6F8B442142006F52D765B
:101BD00008F0D2FB3560322008F0CEFB8DF80040D3
:101BE00001226946002000F003F901226946A42081
:101BF00000F0FEF816208DF80000012269468020D2
:101C000000F0F6F80C208DF80000012269468820CB
:101C100000F0EEF802226946A12000F01DF89DF8C0
:101C20000000302803D19DF80100032801D00120D5
:101C3000FEBD43F2030105A0FEF750FB0020FEBDF0
:101C4000000402400008024000004142435450207A
:101C500049443A25780D0A002DE9F04115460E4613
:101C60000446FFF73BFB7020FFF704FBFFF77EFB0A
:101C7000E0B2FFF7FFFAFFF779FBFFF72FFB7120C8
:101C8000FFF7F8FAFFF772FB00246F1E09E0BC4271
:101C900001D0012000E00020FFF7B0FA3055641CAD
:101CA000E4B2AC42F3D3BDE8F041FFF73DBB000026
:101CB0002DE9F1474B4E00244FF00A0A307881B0ED
:101CC000401CC0B2B0FBFAF20AFB1201DFF8188127
:101CD0002746307009B10A2867D2012201A90220E3
:101CE000FFF7BAFF9DF8040001075ED000F00F0176
:101CF00006295AD2FF208840C04340F0C000454624
:101D000088F8200001274FF0000900BF95F8200057
:101D100007FA04F108423BD034480422694630F8FF
:101D20001400FFF799FF95F830009DF80010C007E8
:101D30009DF8010001F00F010ED000EB012105EB31
:101D40004400C1829DF802209DF8031002F00F02AA
:101D500001EB022181810FE000EB0120C0F5F07161
:101D600005EB440081819DF802209DF8031002F0EC
:101D70000F0201EB0221C1829DF800000821B1EBA6
:101D8000101F05D005EB4400A0F81690A0F80C90A9
:101D9000641CE4B2052CB9D3A889012718B9E88AD4
:101DA00008B98DF8049086F800909DF80400C006EC
:101DB00010D198F82000010602D520F0800007E03D
:101DC0004FF6FF71A8F80C10A8F8161000F0E0000C
:101DD00088F820003078F02801D986F800A038462D
:101DE000BDE8FC87A4000020AC00002038E000081B
:101DF0002DE9F04116460F4604460025FFF76EFA1E
:101E00007020FFF737FAFFF7B1FAE0B2FFF732FAC6
:101E1000FFF7ACFA002408E0385DFFF72BFAFFF774
:101E2000A5FA050003D1641CE4B2B442F4D3FFF771
:101E30007BFA2846BDE8F0812DE9FC5F00254A4C7D
:101E400000954FF4806801954027C4F81080C4E9DC
:101E500002750E464FF0080B1021C4E900B1A946E7
:101E6000204605F0C1FB1020FFF7C0FA002850D132
:101E70003E48BA464F460089000420603720C4E936
:101E8000010AC4E90398204605F0AEFB3720FFF7AE
:101E9000ADFA00283DD1411E04F11400C0E9001B39
:101EA000302181600221C0E903170121416105F061
:101EB0003DFB3320C4F808A0C4E90070C4E90378EE
:101EC000204605F091FB3320FFF790FA040020D163
:101ED000274FDFF89CA04FF4001BE9464C3F40F22F
:101EE0002A68386810EA080F0BD1584605F036FB0F
:101EF0000028F6D0DAF8001049F825106D1C022DE4
:101F0000EFD3082005F02AFB28B1082005F0FEFADF
:101F10000420BDE8FC9F022005F020FB20B1022038
:101F200005F0F4FA0220F4E7202005F017FB20B1B9
:101F3000202005F0EBFA0620EBE74FF40075284669
:101F400005F00CFB20B1284605F0E0FA0720E0E799
:101F500040F2FF5005F0DAFA009800BA706001987C
:101F600000BA30602046D4E7B81400209400002066
:101F7000802C014038B500244FF6FF75AA210020BF
:101F8000FEF736FD20B3012813D0032813D0011F1C
:101F9000092907D2632C05D204EB840100EB41012F
:101FA000C91E8CB20D2809D00E280BD00F2818D0CE
:101FB0000EE0284638BD4FF47F4038BD0A20B4FB00
:101FC000F0F405E0632C03D204EB840005EA40043E
:101FD0001020009006232246B1215F2004F09EFCD1
:101FE000CCE7204638BDF0B50023012403270D6857
:101FF00004FA03F21540954242D1D0F800C05E00C9
:1020000007FA06F52CEA050CC0F800C091F804C0E8
:10201000D0F800E00CFA06FC4CEA0E0CC0F800C048
:1020200091F804C0BCF1010F02D0BCF1020F1FD126
:10203000D0F808C02CEA050CC0F808C091F805C01B
:10204000D0F808E00CFA06FC4CEA0E0CC0F808C008
:10205000D0F804C02CEA020CC0F804C0426891F821
:1020600006C00CFA03FC1FFA8CFC42EA0C02426028
:10207000C268AA43C260CA79C568B2402A43C26036
:102080005B1C102BB3D3F0BD4B07DB0E9A40C90885
:1020900010B500EB8100016A0F249C40A14301624E
:1020A000016A1143016210BD41837047018370478B
:1020B0002DE9FF410121062005F052F900248DF899
:1020C00004408DF8064003208DF80500DFF8C48039
:1020D0000226012500968DF8075069464046FFF715
:1020E00082FF680300908DF8045069462A48FFF784
:1020F0007AFFFFF73DF8294FC7F8B4420A2007F5E9
:102100002D7708F039F93D600A2008F035F98DF88F
:10211000045000968DF8074069464046FFF763FF7C
:10212000642008F029F9042202A948F2401000F0C6
:102130004BF88DF80C4002A919A0FEF7CFF81BA1AF
:1021400002A8FEF7FDFA08BB48F240058DF80860CA
:10215000012202A9284600F045F9012202A9E81D42
:1021600000F032F89DF80810602905D211A0FEF7A2
:10217000B5F8012000F00EF90A2008F0FDF88DF8FE
:102180000840012202A9284600F02CF904B00020E2
:10219000BDE8F08100040240000802400000414216
:1021A0004354502049443A25730D0A0039313437DD
:1021B0000000000044656661756C74205665723AD3
:1021C00025640D0A000000002DE9F04115460E4679
:1021D0000446FFF783F82820FFF74CF8FFF7C6F80E
:1021E000200AFFF747F8FFF7C1F8E0B2FFF742F81F
:1021F000FFF7BCF8FFF772F82920FFF73BF8FFF76D
:10220000B5F800246F1E09E0BC4201D0012000E0B7
:102210000020FEF7F3FF3055641CE4B2AC42F3D368
:10222000BDE8F041FFF780B82DE9F147554E002495
:102230004FF00A0A307885B0401CC0B2B0FBFAF209
:102240000AFB1201504DA046307009B10A286ED227
:1022500048F24E19012205A94846FFF7B5FF0027AD
:102260008DF8007001226946484600F0BBF89DF8E1
:10227000140001075BD000F00F01062957D2FF20A0
:1022800088408DF80000C04395F8209040F0C000D1
:1022900085F82000A889A882E88AE8834FF0010821
:1022A00095F8201008FA04F0014225D0374804229E
:1022B00001A930F81400FFF787FF95F830009DF86A
:1022C0000510C0079DF8040000EB012105EB440058
:1022D0000AD0C1829DF806109DF8072001EB02216B
:1022E000C1F54871818107E081819DF806109DF854
:1022F000072001EB0221C182641CE4B2052CCFD37C
:102300002349AA894FF001080B8828469A4203D82E
:10231000C28A49888A4209D99DF8141001F00F0138
:1023200001290BD9C1898181018BE98237709DF820
:10233000140000F08F0080280AD01AE0818A818181
:10234000C18BC18280218DF8141085F82090EEE7B2
:1023500095F82000010603D520F0800085F82000C4
:102360004FF6FF7025F80C0F6881287D00F0E00023
:1023700028753078F02801D986F800A006B04046CC
:10238000BDE8F087A5000020AC000020FAE00008BE
:102390009004002008B500218DF800108DF8010090
:1023A0000F4800BF435C9DF80020491C1A44C9B285
:1023B0008DF80020B829F5D3D0B2C043401C8DF869
:1023C0000000B822064948F2470000F00BF802224C
:1023D000694648F2FF0000F005F8002008BD000043
:1023E00042E000082DE9F04116460F46044600255C
:1023F000FEF774FF2820FEF73DFFFEF7B7FF200A27
:10240000FEF738FFFEF7B2FFE0B2FEF733FFFEF74C
:10241000ADFF002408E0385DFEF72CFFFEF7A6FFB5
:10242000050003D1641CE4B2B442F4D3FEF77CFF90
:102430002846BDE8F081000030B403460C46500742
:1024400000D0012000EBD20010FB02F0C1B21878DE
:102450005B78812809D3402B07D3FF2B05D0FF28B9
:1024600003D07F2B0CD2403B0BE00020024603E060
:10247000401C04F8012BC0B28842F9D330BC70472D
:10248000413B8138C0B2C0EB4015DBB205EB801098
:1024900003EB400048430B4B0C2A0CD0102A0DD004
:1024A000182AEBD1D3F8192010440A4601462046D9
:1024B00030BC07F0BFBDD3F80920F5E7D3F81120F1
:1024C000F2E70000A0C60120FEE7000070B50D4C49
:1024D0000025C4F8A0520C48016821F44021016095
:1024E000016841F480210160C4F8A452022004F57F
:1024F000287407F05BFF01202060022007F056FFE0
:10250000256070BD00804042000402401CB50121DE
:10251000022004F025FF4FF44070012400908DF854
:10252000044000208DF8060003208DF805008DF88A
:10253000074069460448FFF756FD0448C0F8A0422A
:10254000C0F8A4421CBD00000004024000804042CC
:1025500070B50D4C0025C4F8A0520C48016821F458
:1025600040210160016841F4802101600126C4F826
:10257000A462022004F5287407F018FF26600220E8
:1025800007F014FF256070BD008040420004024047
:102590002DE9F047814616480024016821F44021C6
:1025A000016001680160134E254627464FF001087F
:1025B000C6F8A072022007F0F9FEC6F8A0826006F5
:1025C000040ED6F8240208B1641CE4B2012007F01E
:1025D000EDFE6D1CEDB2082DEAD3B9F1000F04D069
:1025E000FFF774FF2046BDE8F087FFF7B1FFF9E77A
:1025F00000040240008040422DE9F04106461448A4
:10260000016821F440210160016841F480210160EA
:10261000104C0027C4F8A0723D464FF00108F009A5
:10262000C4F8A4027006060E022007F0BFFEC4F82C
:10263000A082022007F0BAFEC4F8A072022007F0C0
:10264000B5FE6D1CEDB2082DE9D3BDE8F0810000A8
:10265000000402400080404270B50D48016821F43A
:1026600040210160016841F480210160094C012092
:10267000C4F8A402C4F8A002042004F5287407F0EA
:1026800095FE00256560042007F090FE256070BD72
:1026900000040240008040420E4810B5016821F459
:1026A00040210160016841F4802101600A4C002052
:1026B000C4F8A002C4F8A402042004F5287407F0AA
:1026C00075FE012020606060BDE81040042007F026
:1026D0006DBE0000000402400080404270B5124808
:1026E0000024016821F440210160016801600F4D60
:1026F0000126C5F8A462304607F058FEC5F8A0626E
:10270000012007F053FE07E0641CE4B2FA2C03D961
:10271000FFF7C2FF012070BDD5F824020028F3D1D5
:10272000C5F8A00270BD00000004024000804042D5
:1027300038B504461E480022009200891D49000455
:1027400008600D2048604020C1E9020200010861D4
:10275000084604F049FF18490868009010F0450F3A
:10276000FAD0012004F0FAFE20B1012004F0CEFEE0
:10277000012038BD042004F0F1FE20B1042004F053
:10278000C5FE032038BD0C48243800680D2801D050
:10279000102038BD40F2FF5004F0B8FE0648203843
:1027A00000680090C0F343202070002038BD000076
:1027B00094000020B8140020342C01407CB505465C
:1027C000EF208DF8000001208DF801001448154C11
:1027D0000168080E8DF80200080C8DF80300080A45
:1027E0008DF8040007208DF805108DF806000026EE
:1027F0008DF8076026800CE0012007F0BDFD2088E1
:10280000000406D5268069460748FDF723FF002807
:1028100004D16D1E2D042D0CEED100207CBD0000D6
:10282000E4000020E0000020F01800201CB5012189
:10283000112004F095FD1C20009000208DF804006C
:1028400003208DF8050001248DF8074069460648ED
:10285000FFF7C9FB02208DF8070000946946034882
:10286000FFF7C1FB1CBD0000001002400000024049
:102870002DE9F043174C81460025208866884643A1
:10288000A088A0F5D041043902D1A079012808D050
:102890000021084603F02AFF04F0BEF84FF0D840AC
:1028A00013E00020A0712A2767814FF02B08A4F8BD
:1028B0000C80014603F01AFF0120A071A4F80A80E1
:1028C000A781E9E7A0F880906D1CB542FAD3BDE876
:1028D000F0830000900400202DE9F04F4A492A249B
:1028E0002B25898845F2105A4FF4305B4FF4285E4F
:1028F0004FF448764FF0F00C49F241394FF4A07391
:1029000045F210374FF4F07280B13F484FF00108A4
:10291000494580F806800380A0F802C001D0B94282
:102920003ED12C2606814481858157E036484FF000
:102930000008494580F80680A0F800C0438006D012
:10294000A1F5D04CBCF1040C01D0B9420CD12C261D
:1029500006814481A1F5D0448581043C01D0B9426F
:1029600044D10380428041E0514507D1A0F808B02E
:10297000A0F80AE04FF42C5181810EE0A1F5C85374
:10298000633B06D0222101812021418121218181C7
:102990002CE02C210181458184810280468025E044
:1029A000A1F5D04CBCF1040C09D051450BD1A0F8D5
:1029B00008B0A0F80AE04FF42C54848121E02C26C2
:1029C0000681458109E0A1F5C85CBCF1630C12D019
:1029D000222404812124448120248481A1F5D0442F
:1029E000043C01D0B94201D102804380BDE8F04FE0
:1029F000002003F079BD4FF02C0CA0F808C04481F2
:102A0000858106804280E9E7900400202DE9FE4F91
:102A1000161ACDE900104FF000085D1A47464FF036
:102A2000FF30002E02DD4FF0010102E003D14FF034
:102A300000018B4602E08346C6F10006002D02DD50
:102A40004FF0010002E003D14FF00000824602E0A7
:102A50008246C5F10005AE4201DD344600E02C4659
:102A6000601C4FF00009029018E0009881B20198B4
:102A700080B200F019F8B0442F44A04504DD01985D
:102A8000A8EB040858440190A74203DD00983F1BBF
:102A90005044009009F101001FFA80F9029989451C
:102AA000E3DDBDE8FE8F000000B503F01FFE03F07C
:102AB000B3FF03484FF0D8410088A1F8800000BD63
:102AC0008C000020F0B51C4615460E4607460B4606
:102AD000FFF79CFF3A46234631461046FFF796FF24
:102AE00023462A4619463846FFF790FF2A462346D2
:102AF0003146BDE8F0401046FFF788BF2DE9FC4F96
:102B000080460025144603200F46A0EB440649E00A
:102B1000381B81B208EB050A01901FFA8AF0FFF713
:102B2000C3FF781B81B208EB040900901FFA89F0FB
:102B3000FFF7BAFF07EB050B1FFA8BF11FFA89F0BD
:102B4000FFF7B2FF07EB04091FFA89F11FFA8AF0B9
:102B5000FFF7AAFFA8EB050A1FFA89F11FFA8AF00E
:102B6000FFF7A2FFA8EB04091FFA8BF11FFA89F007
:102B7000FFF79AFF019881B21FFA8AF0FFF794FFDE
:102B8000009881B21FFA89F0FFF78EFF6D1C002EAE
:102B900003DA06EB8506B61D04E0281B06EB80066B
:102BA000641E0A36A542B3DDBDE8FC8F2DE9F04373
:102BB000434C91460246A08823460D464FEA112811
:102BC000160A5B89A0F51341413916D0A0F5A6413C
:102BD000103912D0B1F5007114D02646A0F5C857AF
:102BE000B1793688B61A761E633F25D0A0F5D04756
:102BF000043F3DD0012951D051E0184603F0FFFEBB
:102C000030463CE0184603F0FAFE304603F0EBFE97
:102C10006089401C80B203F0F2FED0B203F0E3FE04
:102C2000A08903F0ECFE404603F0DDFEA089401CC5
:102C300080B203F0E4FE2DE001B9B2B2184603F011
:102C4000DEFE160A304603F0CEFED0B203F0CBFE15
:102C5000304603F0C8FED0B203F0C5FEA08903F0F1
:102C6000CEFE404603F0BFFEE8B203F0BCFE0EE02D
:102C7000012900D1B2B2184603F0C1FE100A03F0D8
:102C8000B2FED0B203F0AFFEA08903F0B8FE40461A
:102C900003F0A9FEE8B203F0A6FE08E0B2B21146C6
:102CA000184603F0C3FEA089294603F0BFFE4FF08B
:102CB000D840218920F87E1FA0F80290BDE8F0835B
:102CC000900400202DE9F843204C1E468046A3883E
:102CD000089FA3F5D040043802D1A079012807D07D
:102CE000A2EB0800401C84B20D464FF0D84929E001
:102CF00025880846A91AA5EB08030025A5713246C8
:102D00002A2565812B26491E5B1EA68189B29BB2AE
:102D10000097FFF7D7FF0120A0716681A581BDE86C
:102D2000F8832946404603F0E1FC03F075FE0020DD
:102D3000494603E0A1F88070401C80B2A042F9D35C
:102D40006D1CADB2B542ECD9E9E70000900400205B
:102D50002DE9F04FA1B0002401217A20119404F054
:102D6000FFFA0121084604F007FB4FF400400090F1
:102D700001208DF804008DF8064002208DF8050032
:102D800001208DF807006946FE48FFF72CF94CF248
:102D90003370009002208DF804008DF80640032067
:102DA0008DF8050001208DF807006946F648FFF709
:102DB0001AF94FF68070009002208DF804008DF80B
:102DC000064003208DF805000120F04D8DF8070026
:102DD00069462846FFF707F9A814009002208DF8ED
:102DE00004008DF8064003208DF805000120E84E10
:102DF0008DF8070069463046FFF7F5F8A8140090F3
:102E000002208DF804008DF8064003208DF805009F
:102E10000120E04F8DF8070069463846FFF7E3F8D8
:102E20000C220021D848FFF72FF90C220121D648A7
:102E3000FFF72AF90C220421D348FFF725F90C22C9
:102E40000521D148FFF720F90C220821CE48FFF7D1
:102E50001BF90C220921CC48FFF716F90C220A2194
:102E6000C948FFF711F90C220E21C748FFF70CF9EA
:102E70000C220F21C448FFF707F90C22072128462E
:102E8000FFF702F90C2208212846FFF7FDF80C2273
:102E900009212846FFF7F8F80C220A212846FFF7F7
:102EA000F3F80C220B212846FFF7EEF80C2211460E
:102EB0002846FFF7E9F80C220D212846FFF7E4F831
:102EC0000C220E212846FFF7DFF80C220F2128469E
:102ED000FFF7DAF80C2211463046FFF7D5F80C223E
:102EE00011463846FFF7D0F80F20CDE91A043C20F0
:102EF000CDE91C041E941F9409202094CDE91304ED
:102F00000820CDE9150417940620CDE90204189491
:102F100019941020CDE9044006940002CDE90A403E
:102F2000089407948000CDE90C4009941AA8CDE9D3
:102F30000E4013A8109002A8FEF7C0FD0121062044
:102F4000FEF7ACFD322007F017FA0121002003F054
:102F50006DFD322007F010FA002003F092FA8E4A3D
:102F60004FF0204A4FF6FF7B908049F2413545F201
:102F7000103645F2105441F6631846F60407FF2850
:102F800004D3584502D0B0F5134F74D1D32003F0C9
:102F900036FD03F06CFA908003F069FA908003F03C
:102FA00066FA0BEA0020D946908003F060FA918817
:102FB00008439080A8425ED0BF2003F020FD03F0BC
:102FC00056FA908003F053FA908003F050FA908004
:102FD00003F04DFA09EA0020908003F048FA918846
:102FE00008439080B84246D0D42003F008FD03F097
:102FF0003EFA908003F03BFA908003F038FA09EA39
:103000000020908003F033FA918808439080B0420A
:1030100031D04FF45A4003F0F2FC03F028FA9080CC
:103020004FF45B4003F0EBFC03F021FA09EA0020C7
:1030300090804FF45C4003F0E2FC03F018FA9188B2
:1030400008439080B0F5004F39D0A04213D0A120A2
:1030500003F0D5FC03F00BFA908003F008FA09EABC
:103060000020908003F003FA91880843A0F5AE4158
:103070009080613920D080B2A84205D0B04203D000
:10308000A04201D040451CD1DAF81C11504621F075
:103090000F01CAF81C11DAF81C1121F47061CAF88A
:1030A0001C11DAF81C1141F00301CAF81C11DAF8FE
:1030B0001C1141F4007121E0A2F80480E4E794803F
:1030C000E2E7B84203D0A0F54541053918D1DAF856
:1030D0001C11504621F00F01CAF81C11DAF81C111E
:1030E00021F47061CAF81C11DAF81C1141F00A01D0
:1030F000CAF81C11DAF81C1141F44061C0F81C1127
:103100009146918825A0FDF7E9F8B9F80400A84296
:103110007DD1CF2003F073FC002003F064FCC120BC
:1031200003F061FC302003F05EFCED2003F067FC4F
:10313000642003F058FC032003F055FC122003F038
:1031400052FC812003F04FFCE82003F058FC85205E
:1031500003F049FC102003F046FC7A2003F043FC06
:10316000CB2003F04CFC392003F03DFC2C2003F075
:103170003AFC002003F037FC342003F034FC02203A
:1031800014E0000000040240000C02400010024065
:10319000001402400018024090040020204C4344D8
:1031A0002049443A25780D0A0000000003F01BFC7A
:1031B000F72003F024FC202003F015FCEA2003F0A4
:1031C0001EFC002003F00FFC002003F00CFCC020CC
:1031D00003F015FC1B2003F006FCC12003F00FFCDC
:1031E000012003F000FCC52003F009FC302003F0AF
:1031F000FAFB302003F0F7FBC72003F000FCB720F8
:1032000003F0F1FB362003F0FAFB482000E0A7E0D2
:1032100003F0E9FB3A2003F0F2FB552003F0E3FB57
:10322000B12003F0ECFB002003F0DDFB1A2003F0DB
:10323000DAFBB62003F0E3FB0A2003F0D4FBA22064
:1032400003F0D1FBF22003F0DAFB002003F0CBFB0C
:10325000262003F0D4FB012003F0C5FBE02003F09F
:10326000CEFB0F2003F0BFFB2A2003F0BCFB28207D
:1032700003F0B9FB082003F0B6FB0E2003F0B3FB0C
:10328000082003F0B0FB542003F0ADFBA92003F0AD
:10329000AAFB432003F0A7FB0A2003F0A4FB0F20A6
:1032A00003F0A1FB002003F09EFB002003F09BFB3A
:1032B000002003F098FB002003F095FBE12003F0D1
:1032C0009EFB002003F08FFB152003F08CFB1720E2
:1032D00003F089FB072003F086FB112003F083FB3A
:1032E000062003F080FB2B2003F07DFB562003F02B
:1032F0007AFB3C2003F077FB052003F074FB1020E1
:1033000003F071FB0F2003F06EFB3F2003F06BFB1B
:103310003F2003F068FB0F2003F065FB2B2003F038
:103320006EFB002003F05FFB002003F05CFB01203C
:1033300003F059FB3F2003F056FB2A2003F05FFB0C
:10334000002003F050FB002003F04DFB002003F0B1
:103350004AFBEF2003F047FB112003F050FBA5E0F0
:10336000B8427CD1112003F04AFB142007F004F886
:10337000D02003F044FB072003F035FB422003F08C
:1033800032FB1D2003F02FFBD12003F038FB00207F
:1033900003F029FB1A2003F026FB092003F023FB8E
:1033A000D22003F02CFB012003F01DFB222003F0B0
:1033B0001AFBC02003F023FB102003F014FB3B207A
:1033C00003F011FB002003F00EFB022003F00BFBC7
:1033D000112003F008FBC52003F011FB032003F0CC
:1033E00002FBC82003F00BFB002003F0FCFA2520B1
:1033F00003F0F9FA212003F0F6FA052003F0F3FABE
:10340000002003F0F0FA0A2003F0EDFA652003F043
:10341000EAFA252003F0E7FA772003F0E4FA5020D7
:1034200003F0E1FA0F2003F0DEFA002003F0DBFAEC
:10343000F82003F0E4FA012003F0D5FAFE2003F0AF
:10344000DEFA002003F0CFFA022003F0CCFA2020AD
:1034500003F0D5FA362003F0D2FA082000E02BE082
:1034600003F0C1FA3A2003F0CAFA552003F0BBFA80
:103470002B2003F0C4FA002003F0B5FA002003F07B
:10348000B2FA012003F0AFFA3F2003F0ACFA2A2091
:1034900003F0B5FA002003F0A6FA002003F0A3FA27
:1034A000012003F0A0FADF2003F09DFA782006F057
:1034B00063FF292001F0FBBEB0427CD1ED2003F078
:1034C0009EFA012003F08FFAFE2003F08CFAEE2022
:1034D00003F095FADE2003F086FA212003F083FA48
:1034E000F12003F08CFA012003F07DFADF2003F0D5
:1034F00086FA102003F077FAC42003F080FA8F20B8
:1035000003F071FAC62003F07AFA002003F06BFA98
:10351000E22003F068FAE22003F065FAE22003F00B
:1035200062FABF2003F06BFAAA2003F05CFAB02025
:1035300003F065FA0D2003F056FA002003F053FA69
:103540000D2003F050FA002003F04DFA112003F093
:103550004AFA002003F047FA192003F044FA002049
:1035600003F041FA212003F03EFA002003F03BFA79
:103570002D2003F038FA002003F035FA3D2003F047
:1035800032FA002003F02FFA5D2003F02CFA00201D
:1035900003F029FA5D2003F026FA002003F023FA55
:1035A000B12003F02CFA802003F01DFA002003F074
:1035B0001AFA8B2000E0FCE303F015FA002003F078
:1035C00012FA962003F00FFA002003F00CFAB22052
:1035D00003F015FA002003F006FA002003F003FAC6
:1035E000022003F000FA002003F0FDF9032003F0AD
:1035F000FAF9002003F0F7F9B32003F000FA0020F5
:1036000003F0F1F9002003F0EEF9002003F0EBF9EC
:10361000002003F0E8F9002003F0E5F9002003F0B2
:10362000E2F9002003F0DFF9002003F0DCF90020CC
:1036300003F0D9F9002003F0D6F9002003F0D3F904
:10364000002003F0D0F9002003F0CDF9002003F0B2
:10365000CAF9002003F0C7F9002003F0C4F90020E4
:1036600003F0C1F9002003F0BEF9002003F0BBF91C
:10367000002003F0B8F9002003F0B5F9002003F0B2
:10368000B2F9002003F0AFF9002003F0ACF9B42048
:1036900003F0B5F98B2003F0A6F9002003F0A3F99D
:1036A000962003F0A0F9002003F09DF9A12003F07B
:1036B0009AF9002003F097F9B52003F0A0F9022051
:1036C00003F091F9002003F08EF9032003F08BF949
:1036D000002003F088F9042003F085F9002003F0AE
:1036E00082F9B62003F08BF9002003F07CF900206A
:1036F00003F079F9B72003F082F9002003F073F9A1
:10370000002003F070F93F2003F06DF9002003F072
:103710006AF95E2003F067F9002003F064F9642081
:1037200003F061F9002003F05EF98C2003F05BF9EF
:10373000002003F058F9AC2003F055F9002003F005
:1037400052F9DC2003F04FF9002003F04CF970200F
:1037500003F049F9002003F046F9902003F043F903
:10376000002003F040F9EB2003F03DF9002003F0C6
:103770003AF9DC2003F037F9002003F034F9B820DF
:1037800003F03DF9002003F02EF9002003F02BF99F
:10379000002003F028F9002003F025F9002003F0B1
:1037A00022F9002003F01FF9002003F01CF900208B
:1037B00003F019F9BA2003F022F9242003F013F9D9
:1037C000002003F010F9002003F00DF9002003F0B1
:1037D0000AF9C12003F013F9202003F004F90020B6
:1037E00003F001F9542003F0FEF8002003F0FBF889
:1037F000FF2003F0F8F8002003F0F5F8C22003F0F2
:10380000FEF80A2003F0EFF8002003F0ECF80420A3
:1038100003F0E9F8002003F0E6F8C32003F0EFF826
:103820003C2003F0E0F8002003F0DDF83A2003F03C
:10383000DAF8002003F0D7F8392003F0D4F800209C
:1038400003F0D1F8372003F0CEF8002003F0CBF8D6
:103850003C2003F0C8F8002003F0C5F8362003F040
:10386000C2F8002003F0BFF8322003F0BCF80020BB
:1038700003F0B9F82F2003F0B6F8002003F0B3F8F6
:103880002C2003F0B0F8002003F0ADF8292003F05D
:10389000AAF8002003F0A7F8262003F0A4F80020DF
:1038A00003F0A1F8242003F09EF8002003F09BF819
:1038B000242003F098F8002003F095F8232003F06B
:1038C00092F8002003F08FF83C2003F08CF80020E1
:1038D00003F089F8362003F086F8002003F083F81F
:1038E000322003F080F8002003F07DF82F2003F051
:1038F0007AF8002003F077F82C2003F074F8002009
:1039000003F071F8292003F06EF8002003F06BF843
:10391000262003F068F8002003F065F8242003F067
:1039200062F8002003F05FF8242003F05CF8002028
:1039300003F059F8232003F056F8002003F053F861
:10394000C42003F05CF8622003F04DF8002003F07F
:103950004AF8052003F047F8002003F044F88420DB
:1039600003F041F8002003F03EF8F02003F03BF8AC
:10397000002003F038F8182003F035F8002003F099
:1039800032F8A42003F02FF8002003F02CF81820C0
:1039900003F029F8002003F026F8502003F023F864
:1039A000002003F020F80C2003F01DF8002003F0A5
:1039B0001AF8172003F017F8002003F014F89520E8
:1039C00003F011F8002003F00EF8F32003F00BF8D9
:1039D000002003F008F8E62003F005F8002003F0CB
:1039E00002F8C52003F00BF8322002F0FCFF0020A3
:1039F00002F0F9FF442002F0F6FF002002F0F3FF8E
:103A0000652002F0F0FF002002F0EDFF762002F0CA
:103A1000EAFF002002F0E7FF882002F0E4FF002028
:103A200002F0E1FFC62002F0EAFF202002F0DBFFF7
:103A3000002002F0D8FF172002F0D5FF002002F08E
:103A4000D2FF012002F0CFFF002002F0CCFFC72000
:103A500002F0D5FF002002F0C6FF002002F0C3FFF5
:103A6000002002F0C0FF002002F0BDFFC82002F0DD
:103A7000C6FF002002F0B7FF002002F0B4FF0020D4
:103A800002F0B1FF002002F0AEFFC92002F0B7FF44
:103A9000002002F0A8FF002002F0A5FF002002F0A5
:103AA000A2FF002002F09FFF002002F09CFF0020F8
:103AB00002F099FF002002F096FF002002F093FF31
:103AC000002002F090FF002002F08DFF002002F0A5
:103AD0008AFF002002F087FF002002F084FF002010
:103AE00002F081FF002002F07EFF002002F07BFF49
:103AF000E02002F084FF162002F075FF002002F0A3
:103B000072FF1C2002F06FFF002002F06CFF2120EA
:103B100002F069FF002002F066FF362002F063FF2A
:103B2000002002F060FF462002F05DFF002002F05E
:103B30005AFF522002F057FF002002F054FF642089
:103B400002F051FF002002F04EFF7A2002F04BFFFE
:103B5000002002F048FF8B2002F045FF002002F019
:103B600042FF992002F03FFF002002F03CFFA82016
:103B700002F039FF002002F036FFB92002F033FFD7
:103B8000002002F030FFC42002F02DFF002002F0E0
:103B90002AFFCA2002F027FF002002F024FFD220D3
:103BA00002F021FF002002F01EFFD92002F01BFFCF
:103BB000002002F018FFE02002F015FF002002F0C4
:103BC00012FFF32002F00FFF002002F00CFFE120B3
:103BD00002F015FF162002F006FF002002F003FF9E
:103BE0001C2002F000FF002002F0FDFE222002F067
:103BF000FAFE002002F0F7FE362002F0F4FE00206C
:103C000002F0F1FE452002F0EEFE002002F0EBFE95
:103C1000522002F0E8FE002002F0E5FE642002F0EF
:103C2000E2FE002002F0DFFE7A2002F0DCFE00203F
:103C300002F0D9FE8B2002F0D6FE002002F0D3FE67
:103C4000992002F0D0FE002002F0CDFEA82002F064
:103C5000CAFE002002F0C7FEB92002F0C4FE002018
:103C600002F0C1FEC42002F0BEFE002002F0BBFE46
:103C7000CA2002F0B8FE002002F0B5FED22002F009
:103C8000B2FE002002F0AFFED82002F0ACFE002011
:103C900002F0A9FEE02002F0A6FE002002F0A3FE42
:103CA000F32002F0A0FE002002F09DFEE22002F0D0
:103CB000A6FE052002F097FE002002F094FE0B20E5
:103CC00002F091FE002002F08EFE1B2002F08BFE1F
:103CD000002002F088FE342002F085FE002002F071
:103CE00082FE442002F07FFE002002F07CFE4F2086
:103CF00002F079FE002002F076FE612002F073FEF1
:103D0000002002F070FE792002F06DFE002002F02B
:103D10006AFE882002F067FE002002F064FE972011
:103D200002F061FE002002F05EFEA62002F05BFEC3
:103D3000002002F058FEB72002F055FE002002F0ED
:103D400052FEC22002F04FFE002002F04CFEC720BF
:103D500002F049FE002002F046FED12002F043FEB0
:103D6000002002F040FED62002F03DFE002002F0CE
:103D70003AFEDD2002F037FE002002F034FEF32090
:103D800002F031FE002002F02EFEE32002F037FEAA
:103D9000052002F028FE002002F025FE0A2002F095
:103DA00022FE002002F01FFE1C2002F01CFE00205C
:103DB00000E0FDE202F017FE332002F014FE0020C6
:103DC00002F011FE442002F00EFE002002F00BFE75
:103DD000502002F008FE002002F005FE622002F0F2
:103DE00002FE002002F0FFFD782002F0FCFD002022
:103DF00002F0F9FD882002F0F6FD002002F0F3FD4C
:103E0000972002F0F0FD002002F0EDFDA62002F068
:103E1000EAFD002002F0E7FDB72002F0E4FD0020FB
:103E200002F0E1FDC22002F0DEFD002002F0DBFD29
:103E3000C72002F0D8FD002002F0D5FDD12002F00D
:103E4000D2FD002002F0CFFDD52002F0CCFD0020F5
:103E500002F0C9FDDD2002F0C6FD002002F0C3FD26
:103E6000F32002F0C0FD002002F0BDFDE42002F0CE
:103E7000C6FD012002F0B7FD002002F0B4FD0120D4
:103E800002F0B1FD002002F0AEFD022002F0ABFD19
:103E9000002002F0A8FD2A2002F0A5FD002002F07B
:103EA000A2FD3C2002F09FFD002002F09CFD4B2073
:103EB00002F099FD002002F096FD5D2002F093FDD6
:103EC000002002F090FD742002F08DFD002002F031
:103ED0008AFD842002F087FD002002F084FD9320FB
:103EE00002F081FD002002F07EFDA22002F07BFDA9
:103EF000002002F078FDB32002F075FD002002F0F2
:103F000072FDBE2002F06FFD002002F06CFDC420A7
:103F100002F069FD002002F066FDCD2002F063FD95
:103F2000002002F060FDD32002F05DFD002002F0D1
:103F30005AFDDD2002F057FD002002F054FDF32071
:103F400002F051FD002002F04EFDE52002F057FD89
:103F5000002002F048FD002002F045FD002002F0A4
:103F600042FD002002F03FFD022002F03CFD002057
:103F700002F039FD292002F036FD002002F033FD69
:103F80003C2002F030FD002002F02DFD4B2002F01D
:103F90002AFD002002F027FD5D2002F024FD002014
:103FA00002F021FD742002F01EFD002002F01BFD36
:103FB000842002F018FD002002F015FD932002F08D
:103FC00012FD002002F00FFDA22002F00CFD0020E7
:103FD00002F009FDB32002F006FD002002F003FD0F
:103FE000BE2002F000FD002002F0FDFCC42002F023
:103FF000FAFC002002F0F7FCCD2002F0F4FC0020D7
:1040000002F0F1FCD32002F0EEFC002002F0EBFC09
:10401000DC2002F0E8FC002002F0E5FCF32002F0D6
:10402000E2FC002002F0DFFCE62002F0E8FC1120B8
:1040300002F0D9FC002002F0D6FC342002F0D3FCC0
:10404000002002F0D0FC562002F0CDFC002002F04F
:10405000CAFC762002F0C7FC002002F0C4FC7720E6
:1040600002F0C1FC002002F0BEFC662002F0BBFCA6
:10407000002002F0B8FC882002F0B5FC002002F01D
:10408000B2FC992002F0AFFC002002F0ACFCBB2097
:1040900002F0A9FC002002F0A6FC992002F0A3FC8B
:1040A000002002F0A0FC662002F09DFC002002F03F
:1040B0009AFC552002F097FC002002F094FC552059
:1040C00002F091FC002002F08EFC452002F08BFCF7
:1040D000002002F088FC432002F085FC002002F062
:1040E00082FC442002F07FFC002002F07CFCE720F0
:1040F00002F085FC322002F076FC002002F073FC16
:10410000552002F070FC002002F06DFC762002F0D9
:104110006AFC002002F067FC662002F064FC0020CC
:1041200002F061FC672002F05EFC002002F05BFC04
:10413000672002F058FC002002F055FC872002F0B6
:1041400052FC002002F04FFC992002F04CFC0020B1
:1041500002F049FCBB2002F046FC002002F043FCC8
:10416000992002F040FC002002F03DFC772002F094
:104170003AFC002002F037FC442002F034FC00201E
:1041800002F031FC562002F02EFC002002F02BFC45
:10419000232002F028FC002002F025FC332002F04E
:1041A00022FC002002F01FFC452002F01CFC002035
:1041B00002F019FCE82002F022FC002002F013FCBF
:1041C000002002F010FC992002F00DFC002002F00B
:1041D0000AFC872002F007FC002002F004FC882083
:1041E00002F001FC002002F0FEFB772002F0FBFB56
:1041F000002002F0F8FB662002F0F5FB002002F040
:10420000F2FB882002F0EFFB002002F0ECFBAA207A
:1042100002F0E9FB002002F0E6FBBB2002F0E3FB2A
:10422000002002F0E0FB992002F0DDFB002002F00C
:10423000DAFB662002F0D7FB002002F0D4FB552009
:1042400002F0D1FB002002F0CEFB552002F0CBFBA8
:10425000002002F0C8FB442002F0C5FB002002F061
:10426000C2FB442002F0BFFB002002F0BCFB552043
:1042700002F0B9FB002002F0B6FBE92002F0BFFB20
:10428000AA2002F0B0FB002002F0ADFB002002F0FB
:10429000AAFB002002F0A7FB002002F0B0FBAA203E
:1042A00002F0A1FBCF2002F0AAFB002002F09BFB52
:1042B000002002F098FB002002F095FB002002F0A5
:1042C00092FB002002F08FFB002002F08CFB00200C
:1042D00002F089FB002002F086FB002002F083FB45
:1042E000002002F080FB002002F07DFB002002F0A5
:1042F0007AFB002002F077FB002002F074FB002024
:1043000002F071FB002002F06EFB002002F06BFB5C
:10431000F02002F074FB002002F065FB502002F058
:1043200062FB002002F05FFB002002F05CFB00203B
:1043300002F059FBF32002F062FB002002F053FB75
:10434000F92002F05CFB062002F04DFB102002F089
:104350004AFB292002F047FB002002F044FB3A20F0
:1043600002F04DFB552002F03EFB112002F047FB0E
:10437000642006F001F8292002F041FB352002F00C
:104380003EFB002002F02FFB512002F038FBFF2003
:1043900002F029FB532002F032FB2C2002F023FB19
:1043A000552002F02CFB822002F01DFB2C20FCE3A8
:1043B000A0427DD14FF470435521184602F036FBE0
:1043C0004FF20104AA21204602F030FB651C522165
:1043D000284602F02BFBA61C0821304602F026FBE3
:1043E000E71C0121384602F021FB0D214FF430403B
:1043F00002F01CFB0D214BF2010002F017FB0D2116
:104400004BF2020002F012FB4FF4364834214046D2
:1044100002F00CFB34214BF2016002F007FB342167
:104420004BF2026002F002FB4FF431490D21484685
:1044300002F0FCFA4BF2011A0D21504602F0F6FA96
:104440000D214BF2021002F0F1FA34214FF4374003
:1044500002F0ECFA34214BF2017002F0E7FA342159
:104460004BF2027002F0E2FA00214FF4324002F007
:10447000DDFA00214BF2012002F0D8FA00214BF2C4
:10448000022002F0D3FA24214FF4384002F0CEFA91
:1044900024214BF6010002F0C9FA24214BF6020058
:1044A00002F0C4FA01214FF43F4002F0BFFA00E0ED
:1044B000FEE30F214FF4334002F0B8FA0F214BF224
:1044C000013002F0B3FA0F214BF2023002F0AEFAE3
:1044D00034214FF4394002F0A9FA34214BF601108F
:1044E00002F0A4FA34214BF6021002F09FFA0821E0
:1044F0004FF4354002F09AFA08214BF2015002F0D5
:1045000095FA08214BF2025002F090FA03214FF481
:10451000424002F08BFA24214FF43A4002F086FA2E
:1045200024214BF6012002F081FA24214BF60220CF
:1045300002F07CFA00214FF43C4002F077FA782137
:104540004BF6014002F072FA00214BF6024002F0F5
:104550006DFA00214FF43D4002F068FA78214BF6E5
:10456000015002F063FA00214BF6025002F05EFAAD
:1045700000214FF43E4002F059FA64214BF60160ED
:1045800002F054FA00214FF4514002F04FFA332167
:104590004DF2011002F04AFA00214DF2021002F031
:1045A00045FA34214DF2031002F040FA00214DF299
:1045B000041002F03BFA3A214DF2051002F036FAEF
:1045C00000214DF2061002F031FA4A214DF2071097
:1045D00002F02CFA00214DF2081002F027FA5C21BB
:1045E0004DF2091002F022FA00214DF20A1002F0F9
:1045F0001DFA81214DF20B1002F018FA00214DF244
:104600000C1002F013FAA6214DF20D1002F00EFA72
:1046100000214DF20E1002F009FAE5214DF20F10C3
:1046200002F004FA01214DF2101002F0FFF91321FB
:104630004DF2111002F0FAF901214DF2121002F0C0
:10464000F5F954214DF2131002F0F0F901214DF269
:10465000141002F0EBF982214DF2151002F0E6F988
:1046600001214DF2161002F0E1F9CA214DF21710A6
:1046700002F0DCF902214DF2181002F0D7F9002106
:104680004DF2191002F0D2F902214DF21A1002F087
:10469000CDF901214DF21B1002F0C8F902214DF2B3
:1046A0001C1002F0C3F934214DF21D1002F0BEF9C6
:1046B00002214DF21E1002F0B9F967214DF21F10D0
:1046C00002F0B4F902214DF2201002F0AFF984217A
:1046D0004DF2211002F0AAF902214DF2221002F04F
:1046E000A5F9A4214DF2231002F0A0F902214DF208
:1046F000241002F09BF9B7214DF2251002F096F933
:1047000002214DF2261002F091F9CF214DF227102F
:1047100002F08CF902214DF2281002F087F9DE2117
:104720004DF2291002F082F902214DF22A1002F016
:104730007DF9F2214DF22B1002F078F902214DF2B1
:104740002C1002F073F9FE214DF22D1002F06EF9DB
:1047500003214DF22E1002F069F910214DF22F10B5
:1047600002F064F903214DF2301002F05FF93321B9
:104770004DF2311002F05AF903214DF2321002F0DD
:1047800055F96D214DF2331002F050F900214FF42C
:10479000524002F04BF933214DF2012002F046F96C
:1047A00000214DF2022002F041F934214DF20320A4
:1047B00002F03CF900214DF2042002F037F93A21D1
:1047C0004DF2052002F032F900214DF2062002F0F0
:1047D0002DF94A214DF2072002F028F900214DF26F
:1047E000082002F023F95C214DF2092002F01EF9A5
:1047F00000214DF20A2002F019F981214DF20B201F
:1048000002F014F900214DF20C2002F00FF9A6215C
:104810004DF20D2002F00AF900214DF20E2002F0B7
:1048200005F9E5214DF20F2002F000F901214DF2CA
:10483000102002F0FBF813214DF2112002F0F6F8DF
:1048400001214DF2122002F0F1F854214DF2132013
:1048500002F0ECF801214DF2142002F0E7F8822179
:104860004DF2152002F0E2F801214DF2162002F07F
:10487000DDF8CA214DF2172002F0D8F802214DF2DE
:10488000182002F0D3F800214DF2192002F0CEF8E2
:1048900002214DF21A2002F0C9F801214DF21B202D
:1048A00002F0C4F802214DF21C2002F0BFF83421BE
:1048B0004DF21D2002F0BAF802214DF21E2002F046
:1048C000B5F867214DF21F2002F0B0F802214DF239
:1048D000202002F0ABF884214DF2212002F0A6F84E
:1048E00002214DF2222002F0A1F8A4214DF2232052
:1048F00002F09CF802214DF2242002F097F8B72133
:104900004DF2252002F092F802214DF2262002F00D
:104910008DF8CF214DF2272002F088F802214DF2C8
:10492000282002F083F8DE214DF2292002F07EF8E3
:1049300002214DF22A2002F079F8F2214DF22B20CB
:1049400002F074F802214DF22C2002F06FF8FE21E3
:104950004DF22D2002F06AF803214DF22E2002F0D4
:1049600065F810214DF22F2002F060F803214DF27E
:10497000302002F05BF833214DF2312002F056F87E
:1049800003214DF2322002F051F86D214DF2332017
:1049900002F04CF800214FF4534002F047F8332165
:1049A0004DF2013002F042F800214DF2023002F0E7
:1049B0003DF834214DF2033002F038F800214DF279
:1049C000043002F033F83A214DF2053002F02EF8AF
:1049D00000214DF2063002F029F84A214DF207304D
:1049E00002F024F800214DF2083002F01FF85C219B
:1049F0004DF2093002F01AF800214DF20A3002F0AF
:104A000015F881214DF20B3002F010F800214DF223
:104A10000C3002F00BF8A6214DF20D3002F006F832
:104A200000214DF20E3002F001F8E5214DF20F3079
:104A300001F0FCFF01214DF2103001F0F7FF1321CE
:104A40004DF2113001F0F2FF01214DF2123001F070
:104A5000EDFF54214DF2133001F0E8FF01214DF23A
:104A6000143001F0E3FF82214DF2153001F0DEFF3A
:104A700001214DF2163001F0D9FFCA214DF2173055
:104A800001F0D4FF02214DF2183001F0CFFF0021D8
:104A90004DF2193001F0CAFF02214DF21A3001F037
:104AA000C5FF01214DF21B3001F0C0FF02214DF284
:104AB0001C3001F0BBFF34214DF21D3001F0B6FF78
:104AC00002214DF21E3001F0B1FF67214DF21F307F
:104AD00001F0ACFF02214DF2203001F0A7FF84214C
:104AE0004DF2213001F0A2FF02214DF2223001F0FF
:104AF0009DFFA4214DF2233001F098FF02214DF2D9
:104B0000243001F093FFB7214DF2253001F08EFFE4
:104B100002214DF2263001F089FFCF214DF22730DE
:104B200001F084FF02214DF2283001F07FFFDE21E9
:104B30004DF2293001F07AFF02214DF22A3001F0C6
:104B400075FFF2214DF22B3001F070FF02214DF282
:104B50002C3001F06BFFFE214DF22D3001F066FF8D
:104B600003214DF22E3001F061FF10214DF22F3064
:104B700001F05CFF03214DF2303001F057FF33218B
:104B80004DF2313001F052FF03214DF2323001F08D
:104B90004DFF6D214DF2333001F048FF00214FF4FD
:104BA000544001F043FF332100E080E34DF2014027
:104BB00001F03CFF00214DF2024001F037FF3421AB
:104BC0004DF2034001F032FF00214DF2044001F0AC
:104BD0002DFF3A214DF2054001F028FF00214DF252
:104BE000064001F023FF4A214DF2074001F01EFF6D
:104BF00000214DF2084001F019FF5C214DF20940FF
:104C000001F014FF00214DF20A4001F00FFF812155
:104C10004DF20B4001F00AFF00214DF20C4001F073
:104C200005FFA6214DF20D4001F000FF00214DF2DD
:104C30000E4001F0FBFEE5214DF20F4001F0F6FEC3
:104C400001214DF2104001F0F1FE13214DF211400F
:104C500001F0ECFE01214DF2124001F0E7FE54217B
:104C60004DF2134001F0E2FE01214DF2144001F03B
:104C7000DDFE82214DF2154001F0D8FE01214DF2FA
:104C8000164001F0D3FECA214DF2174001F0CEFECE
:104C900002214DF2184001F0C9FE00214DF21940E9
:104CA00001F0C4FE02214DF21A4001F0BFFE00E007
:104CB00000E301214DF21B4001F0B8FE02214DF24C
:104CC0001C4001F0B3FE34214DF21D4001F0AEFE58
:104CD00002214DF21E4001F0A9FE67214DF21F4056
:104CE00001F0A4FE02214DF2204001F09FFE84213C
:104CF0004DF2214001F09AFE02214DF2224001F0D6
:104D000095FEA4214DF2234001F090FE02214DF2C8
:104D1000244001F08BFEB7214DF2254001F086FEC4
:104D200002214DF2264001F081FECF214DF22740B5
:104D300001F07CFE02214DF2284001F077FEDE21D9
:104D40004DF2294001F072FE02214DF22A4001F09D
:104D50006DFEF2214DF22B4001F068FE02214DF272
:104D60002C4001F063FEFE214DF22D4001F05EFE6D
:104D700003214DF22E4001F059FE10214DF22F403B
:104D800001F054FE03214DF2304001F04FFE33217B
:104D90004DF2314001F04AFE03214DF2324001F064
:104DA00045FE6D214DF2334001F040FE00214FF4ED
:104DB000554001F03BFE33214DF2015001F036FE2B
:104DC00000214DF2025001F031FE34214DF203502A
:104DD00001F02CFE00214DF2045001F027FE3A2193
:104DE0004DF2055001F022FE00214DF2065001F077
:104DF0001DFE4A214DF2075001F018FE00214DF230
:104E0000085001F013FE5C214DF2095001F00EFE36
:104E100000214DF20A5001F009FE81214DF20B50A4
:104E200001F004FE00214DF20C5001F0FFFDA6211F
:104E30004DF20D5001F0FAFD00214DF20E5001F03F
:104E4000F5FDE5214DF20F5001F0F0FD01214DF28D
:104E5000105001F0EBFD13214DF2115001F0E6FD71
:104E600001214DF2125001F0E1FD54214DF2135099
:104E700001F0DCFD01214DF2145001F0D7FD82213B
:104E80004DF2155001F0D2FD01214DF2165001F006
:104E9000CDFDCA214DF2175001F0C8FD02214DF29F
:104EA000185001F0C3FD00214DF2195001F0BEFD74
:104EB00002214DF21A5001F0B9FD01214DF21B50B3
:104EC00001F0B4FD02214DF21C5001F0AFFD342180
:104ED0004DF21D5001F0AAFD02214DF21E5001F0CD
:104EE000A5FD67214DF21F5001F0A0FD02214DF2FA
:104EF000205001F09BFD84214DF2215001F096FDE0
:104F000002214DF2225001F091FDA4214DF22350D7
:104F100001F08CFD02214DF2245001F087FDB721F4
:104F20004DF2255001F082FD02214DF2265001F094
:104F30007DFDCF214DF2275001F078FD02214DF289
:104F4000285001F073FDDE214DF2295001F06EFD75
:104F500002214DF22A5001F069FDF2214DF22B5051
:104F600001F064FD02214DF22C5001F05FFDFE21A5
:104F70004DF22D5001F05AFD03214DF22E5001F05B
:104F800055FD10214DF22F5001F050FD03214DF23F
:104F9000305001F04BFD33214DF2315001F046FD10
:104FA00003214DF2325001F041FD6D214DF233509D
:104FB00001F03CFD00214FF4564001F037FD332154
:104FC0004DF2016001F032FD00214DF2026001F06E
:104FD0002DFD34214DF2036001F028FD00214DF23A
:104FE000046001F023FD3A214DF2056001F01EFD41
:104FF00000214DF2066001F019FD4A214DF20760D3
:1050000001F014FD00214DF2086001F00FFD5C215C
:105010004DF2096001F00AFD00214DF20A6001F035
:1050200005FD81214DF20B6001F000FD00214DF2E4
:105030000C6001F0FBFCA6214DF20D6001F0F6FCC6
:1050400000214DF20E6001F0F1FCE5214DF20F6000
:1050500001F0ECFC01214DF2106001F0E7FC13219E
:105060004DF2116001F0E2FC01214DF2126001F0FD
:10507000DDFC54214DF2136001F0D8FC01214DF20A
:10508000146001F0D3FC82214DF2156001F0CEFCDA
:1050900001214DF2166001F0C9FCCA214DF21760E2
:1050A00001F0C4FC02214DF2186001F0BFFC0021A8
:1050B0004DF2196001F0BAFC02214DF21A6001F0C4
:1050C000B5FC01214DF21B6001F0B0FC02214DF254
:1050D0001C6001F0ABFC34214DF21D6001F0A6FC18
:1050E00002214DF21E6001F0A1FC67214DF21F600C
:1050F00001F09CFC02214DF2206001F097FC84211C
:105100004DF2216001F092FC02214DF2226001F08B
:105110008DFCA4214DF2236001F088FC02214DF2A8
:10512000246001F083FCB7214DF2256001F07EFC84
:1051300002214DF2266001F079FCCF214DF227606B
:1051400001F074FC02214DF2286001F06FFCDE21B9
:105150004DF2296001F06AFC02214DF22A6001F053
:1051600065FCF2214DF22B6001F060FC02214DF252
:105170002C6001F05BFCFE214DF22D6001F056FC2D
:1051800003214DF22E6001F051FC10214DF22F60F1
:1051900001F04CFC03214DF2306001F047FC33215B
:1051A0004DF2316001F042FC03214DF2326001F01A
:1051B0003DFC6D214DF2336001F038FC552118465D
:1051C00001F034FCAA21204601F030FC522128468F
:1051D00001F02CFC0821304601F028FC0021384663
:1051E00001F024FCCC21484601F020FC002150466F
:1051F00001F01CFC0521404601F018FC70214FF421
:10520000374001F013FC70214BF2017001F00EFCED
:1052100001214FF4384001F009FC03214BF6010055
:1052200001F004FC03214BF6020001F0FFFB032117
:105230004BF6030001F0FAFB02214FF43C4001F071
:10524000F5FB00214BF6014001F0F0FB00214BF68D
:10525000024001F0EBFBD0214FF4494001F0E6FBA6
:1052600002214CF6011001F0E1FB50214CF6021036
:1052700001F0DCFB50214CF6031001F0D7FB50216C
:105280004CF6041001F0D2FB00214FF4545001F011
:10529000CDFB55214FF4685001F0C8FB4FF4885006
:1052A00001F0ADFB782005F081F84FF4245001F0B7
:1052B000A6FBF3E0A0F513414FF480744FF4E069CE
:1052C00040F2022A4FF4274625397CD040F2077578
:1052D000C91E79D04FF488774FF41C56083174D02A
:1052E000113973D0A0F5A841083970D0A0F5A851A4
:1052F0004FF4407705396BD0B1F5204169D0B1F555
:10530000805167D0A0F58A4131397CD0091F7BD00C
:105310004045CED1E22001F072FB1D2001F063FB7D
:10532000022001F060FB042001F05DFB642005F029
:105330003DF8E02001F063FB012001F054FB0A205E
:1053400005F01AF8E02001F05AFB032001F04BFBB6
:105350000C2005F011F8012001F051FB0A2005F0A6
:105360000BF8E62001F04BFB2F2001F03CFBFF2067
:1053700001F039FBFF2001F036FBB02001F03FFBCC
:10538000202001F030FB002001F02DFB032001F074
:105390002AFB40F21F3001F026FB012001F023FB25
:1053A00040F2DF1001F01FFB002001F01CFBB420D5
:1053B00001F025FB042001F016FB40F21F4001F034
:1053C00012FB002007E076E041E1F9E1A0E275E39D
:1053D000FEE3FEE3FEE301F006FB2E2001F003FBFB
:1053E000002001F000FB002001F0FDFA002001F098
:1053F000FAFA002001F0F7FAB62001F000FB0220D3
:1054000001F0F1FA01E0E6E3E6E34FF4037001F0A6
:10541000EAFA002001F0E7FA172001F0E4FA15207B
:1054200001F0E1FA002001F0DEFA002001F0DBFAE1
:10543000F02001F0E4FA032001F0D5FA292001F070
:10544000DEFAD02001F0DBFA002001F0CCFABE2019
:1054500001F0D5FA052001F0C6FAFE2001F0C3FAEA
:10546000012001F0C0FA002001F0BDFA002001F097
:10547000BAFA002001F0B7FAB82001F0C0FA032010
:1054800001F0B1FA012001F0AEFABA2001F0B7FA4A
:10549000012001F0A8FA642000F0FEFF0020FDF7D3
:1054A0001BFAFF490120C1F8BC025846FDF7E0F99C
:1054B00021B0BDE8F08F47F6F001E52001F0B6FA23
:1054C0002146012001F0B2FA4946022001F0AEFA6D
:1054D00041F23001032001F0A9FA0021042001F07B
:1054E000A5FA5146082001F0A1FA0021092001F097
:1054F0009DFA00210A2001F099FA00210C2001F008
:1055000095FA00210D2001F091FA00210F2001F001
:105510008DFA0021102001F089FA0721112001F0F5
:1055200085FA0021122001F081FA0021132001F0F8
:105530007DFA0021072001F079FA41F290611020F4
:1055400001F074FA40F22721112001F06FFA9D2139
:10555000122001F06BFA4FF4C851132001F066FAE3
:105560002521292001F062FA0D212B2001F05EFA9D
:105570000721302001F05AFA40F20331312001F0C6
:1055800055FA0321322001F051FA40F2062135206C
:1055900001F04CFA0821362001F048FA40F20641A9
:1055A000372001F043FA4FF44171382001F03EFA00
:1055B0000721392001F03AFA40F202613C2001F063
:1055C00035FA08213D2001F031FA0021502001F088
:1055D0002DFAEF21512001F029FA0021522001F08B
:1055E00025FA40F23F11532001F020FA31466020A5
:1055F00001F01CFA0121612001F018FA00216A2053
:1056000001F014FA0021802001F010FA002181201D
:1056100001F00CFA0021822001F008FA0021832019
:1056200001F004FA0021842001F000FA0021852015
:1056300001F0FCF91021902001F0F8F94FF4C0615D
:10564000922001F0F3F940F233110720FEE341F21A
:105650008F01EC2001F0EAF941F23421EF2001F052
:10566000E5F92146012001F0E1F94946022001F067
:10567000DDF941F23001032001F0D8F900210420C6
:1056800001F0D4F95146082001F0D0F90021092099
:1056900001F0CCF900210A2001F0C8F901210C2009
:1056A00001F0C4F900210D2001F0C0F900210F2004
:1056B00001F0BCF90021102001F0B8F907211120F8
:1056C00001F0B4F90021122001F0B0F900211320FB
:1056D00001F0ACF90121072001F0A8F9322004F013
:1056E0004BFE41F29041102001F0A0F940F2272139
:1056F000112001F09BF9322004F03EFE8A21122095
:1057000001F094F9322004F037FE4FF4D051132009
:1057100001F08CF90621292001F088F90D212B20B8
:1057200001F084F9322004F027FE0021202001F04E
:105730007DF90021212001F079F9322004F01CFECE
:105740000021302001F072F940F20461312001F0B3
:105750006DF940F20531322001F068F90021352061
:1057600001F064F940F60941362001F05FF94FF489
:105770000171372001F05AF940F20131382001F06F
:1057800055F92946392001F051F900213C2001F05A
:105790004DF940F60A213D2001F048F9322004F08D
:1057A000EBFD0021502001F041F9EF21512001F0E3
:1057B0003DF90021522001F039F940F23F114EE14C
:1057C0000021084601F032F92146012001F02EF9AE
:1057D0004946022001F02AF941F23001032001F08C
:1057E00025F90021042001F021F95146082001F09B
:1057F0001DF90021092001F019F900210A2001F00A
:1058000015F901210C2001F011F900210D2001F002
:105810000DF900210F2001F009F9322004F0ACFD50
:1058200040F20111072001F001F9322004F0A4FD3B
:105830004FF48651102001F0F9F80721112001F0F2
:10584000F5F83946122001F0F1F84FF430611320D9
:1058500001F0ECF80021292001F0E8F844F21001F1
:105860002B2001F0E3F80021502001F0DFF8EF21B8
:10587000512001F0DBF80021522001F0D7F840F26E
:105880003F11532001F0D2F83146602001F0CEF8EC
:105890000121612001F0CAF800216A2002E0000025
:1058A0000080404201F0C2F80021802001F0BEF8E3
:1058B0000021812001F0BAF80021822001F0B6F821
:1058C0000021832001F0B2F80021842001F0AEF81D
:1058D0000021852001F0AAF81021902001F0A6F8FF
:1058E0000021922001F0A2F80121932001F09EF8FE
:1058F0003946952001F09AF80021972001F096F89A
:105900000021982001F092F840F27311072080E303
:1059100041F21401E72001F089F82146012001F04D
:1059200085F84FF40071022001F080F841F238014F
:10593000032001F07BF85146082001F077F80021A0
:10594000092001F073F800210A2001F06FF800210E
:105950000C2001F06BF800210D2001F067F8002108
:105960000F2001F063F80021102001F05FF80721FB
:10597000112001F05BF80021122001F057F80021FE
:10598000132001F053F8C82004F0F6FC41F29061B6
:10599000102001F04BF840F22721112001F046F8C9
:1059A000322004F0E9FC0C21122001F03FF83220F3
:1059B00004F0E2FC4FF40061132001F037F81121EC
:1059C000292001F033F80B212B2001F02FF8322091
:1059D00004F0D2FC0021202001F028F840F23F130F
:1059E0001946212001F022F80021302001F01EF894
:1059F0004FF483742146312001F018F80021322041
:105A000001F014F84FF40171352001F00FF841F264
:105A10000A61362001F00AF82946372001F006F81D
:105A20002146382001F002F82946392000F0FEFF17
:105A300040F202413C2000F0F9FF40F60F413D20CA
:105A400000F0F4FF0021502000F0F0FFEF21512082
:105A500000F0ECFF0021522000F0E8FF194653202F
:105A600000F0E4FF3146602000F0E0FF01216120FA
:105A700000F0DCFF00216A2000F0D8FF0021802028
:105A800000F0D4FF0021812000F0D0FF002182200F
:105A900000F0CCFF0021832000F0C8FF002184200B
:105AA00000F0C4FF0021852000F0C0FF10219020ED
:105AB00000F0BCFF4FF4C0619220FCE321460120BE
:105AC00000F0B4FF4946022000F0B0FF41F230017F
:105AD000032000F0ABFF0021042000F0A7FF40F2FC
