:020000040800F2
:1000000028CA0120F9BE00083D2700083F27000844
:1000100043270008472700084B270008000000007E
:100020000000000000000000000000004F27000852
:10003000512700080000000053270008552700083A
:1000400013BF000813BF000813BF000813BF000848
:1000500013BF000813BF000813BF000813BF000838
:1000600013BF000813BF000813BF000813BF000828
:1000700013BF000813BF000813BF000813BF000818
:1000800013BF000813BF000813BF000813BF000808
:1000900013BF000813BF000813BF000813BF0008F8
:1000A00013BF000813BF000813BF000813BF0008E8
:1000B00013BF000813BF00087146010813BF0008F2
:1000C00013BF000813BF000813BF000813BF0008C8
:1000D00013BF00086FBE000813BF00089DB70008DB
:1000E00013BF000813BF000813BF000813BF0008A8
:1000F00013BF000813BF000813BF000813BF000898
:1001000013BF00083FB4000813BF000813BF000866
:1001100013BF000813BF000813BF00081DB7000875
:1001200013BF000813BF000813BF000813BF000867
:1001300013BF000813BF000813BF000813BF000857
:1001400013BF000813BF000813BF000813BF000847
:1001500013BF000813BF000813BF000813BF000837
:1001600013BF000813BF000813BF000813BF000827
:1001700013BF000813BF000813BF000813BF000817
:1001800013BF000813BF000800F002F800F0B2F837
:100190000AA090E8000C82448344AAF10107DA45E2
:1001A00001D100F0A7F8AFF2090EBAE80F0013F082
:1001B000010F18BFFB1A43F00103184770930100A9
:1001C000909301000A444FF0000C10F8013B13F02B
:1001D000070408BF10F8014B1D1108BF10F8015BA0
:1001E000641E05D010F8016B641E01F8016BF9D193
:1001F00013F0080F1EBF10F8014BAD1C0C1B09D1EA
:100200006D1E58BF01F801CBFAD505E014F8016B5B
:1002100001F8016B6D1EF9D59142D6D370470000ED
:100220000023002400250026103A28BF78C1FBD8FF
:10023000520728BF30C148BF0B6070476E2915F0C8
:100240005683702915F0AD80662917F02381652942
:1002500017F02081672917F01D816129AFF3008015
:1002600003681B0A28BF41F08001692915F01E8030
:10027000642915F01B80752915F018806F2915F079
:100280004F84782915F07980E92915F0E983E4296C
:1002900015F0E683F52915F0E383EF2915F04C847A
:1002A000F82915F078800368DB0928BF41F0800148
:1002B000632915F05883732915F05D83E32915F040
:1002C000D786F32915F0DC86002070471FB517F09C
:1002D000DCF815F02FFF04000020002116F010FCC0
:1002E000401C60600020002116F0F4FBE0601FBDA0
:1002F00010B510BD15F0F0FE1146FFF7E7FF01F055
:10030000A8FC15F0C9FF03B4FFF7F2FF03BC0BF024
:100310004FFD000030BF72B6704762B6704780F381
:10032000088870477CB504460D461F20FE490880AA
:1003300005F1C80083B204F5967082B229462046C2
:1003400006F08AFF05F1640083B204F5967082B26C
:1003500005F1640081B2204606F026FF05F1C801D0
:100360008BB204F196018AB288B2294606F01CFFCE
:100370004FF61F0005F16206B3B204F19406B2B263
:10038000AE1CB1B2A61C0090B0B206F081FE47F6DA
:10039000FF7005F16206B3B204F59576B2B2AE1CF9
:1003A000B1B204F198060090B0B206F071FE4FF6BB
:1003B000074005F1C606B3B204F19406B2B205F1E6
:1003C0006606B1B2A61C0090B0B206F061FE4CF217
:1003D000186005F1C606B3B204F59576B2B205F120
:1003E0006606B1B204F198060090B0B206F050FE75
:1003F0000020CD490880CDA01821CE4ECDE90010B7
:100400007388328805F12606B1B204F12306B0B232
:1004100007F0D7F8C8A01821C64ECDE900107388A0
:10042000328805F12606B1B204F1B606B0B207F083
:10043000C8F8C3A01821BF4ECDE9001073883288D8
:1004400005F18A06B1B204F11E06B0B207F0B9F8A0
:10045000BEA01821B74ECDE900107388328805F18F
:100460008A06B1B204F1AE06B0B207F0AAF87CBDBC
:100470007CB505460C461F20AB49088004F1C80036
:1004800083B205F1960082B22146284606F0E4FECA
:1004900004F1640083B205F1960082B204F16400B5
:1004A00081B2284606F080FE4FF61F0004F1620676
:1004B000B3B205F19406B2B2A61CB1B2AE1C009064
:1004C000B0B206F0E5FD47F6FF7004F1C606B3B220
:1004D00005F19406B2B204F16606B1B2AE1C00900A
:1004E000B0B206F0D5FD00208F4908808FA01821FA
:1004F000904ECDE900107388328804F12606B1B21F
:1005000005F12306B0B207F05CF88DA01821894EE2
:10051000CDE900107388328804F18A06B1B205F182
:100520001E06B0B207F04DF87CBD7CB504460D4602
:100530001F207D49088005F1C8018BB204F5967132
:100540008AB2963988B2294606F086FE05F164061D
:10055000B3B204F59676B2B205F16406B1B204F115
:100560009606B0B206F020FE4FF6074005F162068F
:10057000B3B204F59576B2B2AE1CB1B204F19806EE
:100580000090B0B206F084FD4CF2186005F1C6068A
:10059000B3B204F59576B2B205F16606B1B204F1D4
:1005A00098060090B0B206F073FD00205E49088006
:1005B00061A018215F4ECDE900107388328805F1E3
:1005C0002606B1B204F1B606B0B206F0FAFF5FA09B
:1005D0001821584ECDE900107388328805F18A063B
:1005E000B1B204F1AE06B0B206F0EBFF7CBD03B5CC
:1005F00087B01F204C490880089800F58C7080B2A5
:100600000690079800F2DB1080B205900246DDE903
:100610000630089906F020FE4CF218600090089809
:1006200000F58B7080B20690079800F2D91080B266
:1006300005900898801C80B204900798801C80B2B6
:10064000039004A90EC906F023FD00203649088056
:1006500008987F3080B2069007981B3080B20590D2
:1006600008981B3080B2049007981B3080B203902A
:1006700004A90EC906F098FD08987F3080B2069054
:10068000079800F2BF1080B2059008981B3080B226
:100690000490079800F2BF1080B2039004A90EC91D
:1006A00006F082FD08981B3080B206900798A430AF
:1006B00080B2059008981B3080B2049007981B30D8
:1006C00080B2039004A90EC906F06EFD08981E3092
:1006D00080B206900798A73080B2059008981B302A
:1006E00080B204900798A43080B2039004A90EC988
:1006F00006F05AFD08981B3080B206900798AA3081
:1007000080B2059008981E3080B204900798A730F8
:1007100080B2039004A90EC906F046FD08981B306C
:1007200080B20690079817E01C0000204C4544302A
:100730005F4F4E00CC0300204C4544315F4F4E00CC
:100740004C4544305F4F4646000000004C45443164
:100750005F4F46460000000000F5987080B205909B
:1007600008981B3080B204900798AA3080B203909A
:1007700004A90EC906F018FD08981E3080B2069034
:10078000079800F2331080B2059008981B3080B2B1
:100790000490079800F5987080B2039004A90EC9E0
:1007A00006F002FD08981B3080B20690079800F50D
:1007B0009B7080B2059008981E3080B20490079814
:1007C00000F2331080B2039004A90EC906F0ECFCCD
:1007D00008981B3080B20690079800F2BF1080B2D4
:1007E000059008981B3080B20490079800F59B7024
:1007F00080B2039004A90EC906F0D6FC08987F3099
:1008000080B206900798A43080B2059008987F3097
:1008100080B2049007981B3080B2039004A90EC9DF
:1008200006F0C2FC08987C3080B206900798A7308A
:1008300080B2059008987F3080B204900798A43069
:1008400080B2039004A90EC906F0AEFC08987F3070
:1008500080B206900798AA3080B2059008987C3044
:1008600080B204900798A73080B2039004A90EC903
:1008700006F09AFC08987F3080B20690079800F541
:10088000987080B2059008987F3080B204900798E5
:10089000AA3080B2039004A90EC906F085FC08981E
:1008A0007C3080B20690079800F2331080B2059039
:1008B00008987F3080B20490079800F5987080B255
:1008C000039004A90EC906F06FFC08987F3080B22F
:1008D0000690079800F59B7080B2059008987C30D0
:1008E00080B20490079800F2331080B2039004A9FC
:1008F0000EC906F059FC08987F3080B20690079820
:1009000000F2BF1080B2059008987F3080B204904A
:10091000079800F59B7080B2039004A90EC906F0F9
:1009200043FC4FF6FF70009008987D3080B206902F
:100930000798A23080B2059008981D3080B20490CC
:1009400007981D3080B2039004A90EC906F0A0FBE1
:100950004FF6FF70009008987D3080B2069007989F
:1009600000F5977080B2059008981D3080B2049011
:100970000798AC3080B2039004A90EC906F088FB3A
:100980004FF6FF70009008987D3080B2069007986F
:1009900000F2BD1080B2059008981D3080B204901E
:1009A000079800F59C7080B2039004A90EC906F068
:1009B0006FFB0020FE490880FEA01821CDE9001041
:1009C000FD4840880690FC480088059008983C3017
:1009D00080B2049007985D3080B2039004A90EC9DC
:1009E00006F0EFFDF5A01821CDE90010F24840888F
:1009F0000690F1480088059008983C3080B2049039
:100A00000798E93080B2039004A90EC906F0D9FD19
:100A1000EBA01821CDE90010E74840880690E64891
:100A20000088059008983C3080B20490079800F246
:100A3000751080B2039004A90EC906F0C2FD09B07A
:100A400000BD03B587B01F20D94908800898C83079
:100A500080B20690079800F2DB1080B20590024643
:100A6000DDE90630089906F0F7FB0898C83080B237
:100A700006900798E63080B205900798E63080B27D
:100A80000490DDE90523089906F08EFB4CF218600E
:100A900000900898C63080B20690079800F2D910EE
:100AA00080B205900898801C80B204900798801C42
:100AB00080B2039004A90EC906F0EAFAC1A0182179
:100AC000CDE90010BC4840880690BB4800880590DE
:100AD0000898263080B204900798233080B20390A3
:100AE00004A90EC906F06DFDB9A01821CDE90010CA
:100AF000B14840880690B0480088059008988A3030
:100B000080B204900798233080B2039004A90EC9E4
:100B100006F057FD0898503080B20690079800F212
:100B2000631080B205900898143080B20490079842
:100B3000FF3080B2039004A90EC906F08DFB08981F
:100B4000503080B20690079800F2C71080B205902E
:100B50000898143080B20490079800F2631080B2B5
:100B6000039004A90EC906F077FB0898AF3080B255
:100B70000690079800F2631080B2059008987330D1
:100B800080B204900798FF3080B2039004A90EC988
:100B900006F062FB0898AF3080B20690079800F22A
:100BA000C71080B205900898733080B204900798FF
:100BB00000F2631080B2039004A90EC906F04CFB4A
:100BC0004FF6FF70009008984E3080B2069007985C
:100BD00000F2611080B205900898163080B204903F
:100BE000079800F2011080B2039004A90EC906F024
:100BF0004FFA4FF6FF70009008984E3080B2069082
:100C0000079800F2C51080B205900898163080B29F
:100C10000490079800F2651080B2039004A90EC9F1
:100C200006F036FA4FF6FF7000900898AD3080B2AB
:100C30000690079800F2611080B205900898753010
:100C400080B20490079800F2011080B2039004A9CA
:100C50000EC906F01DFA4FF6FF7000900898AD30EF
:100C600080B20690079800F2C51080B205900898EF
:100C7000753080B20490079800F2651080B203903E
:100C800004A90EC906F004FA4FF4FC604849088034
:100C900052A01821CDE900104748408806904648E8
:100CA000008805900898263080B20490079800F5D7
:100CB000917080B2039004A90EC906F082FC48A08E
:100CC0001821CDE900103C48408806903A48008839
:100CD00005900898263080B20490079800F5C370FC
:100CE00080B2039004A90EC906F06BFC3BA018214A
:100CF000CDE900103048408806902F4800880590C4
:100D00000898853080B20490079800F5917080B201
:100D1000039004A90EC906F054FC31A01821CDE9B6
:100D200000102548408806902348008805900898C0
:100D3000853080B20490079800F5C37080B20390AC
:100D400004A90EC906F03DFC1F2019490880089827
:100D5000143880B20690079800F2DB1080B205903C
:100D60000898A0F5967080B204900146DDE905234D
:100D7000079806F071FA0898143880B20690079820
:100D8000E63080B205900898A0F5967080B2049085
:100D90000798E63080B2039004A90EC906F004FA61
:100DA0004CF2186000900898163880B2069019E04E
:100DB0001C0000202D000000CC030020400000009B
:100DC0002B00000066656E677368616E3A00000074
:100DD0006A696173686971693A0000004F4E0000EA
:100DE0004F464600079800F2D91080B20590089847
:100DF000A0F5957080B204900798801C80B2039093
:100E000004A90EC906F044F90020FE490880FEA09E
:100E10001821CDE90010FD4840880690FB48008865
:100E200005900898A0F5877080B204900798D73095
:100E300080B2039004A90EC906F0C3FBF4A01821E8
:100E4000CDE90010F14840880690F04800880590F0
:100E50000898C83880B204900798C83080B20390D0
:100E600004A90EC906F0ADFBEBA01821CDE90010D6
:100E7000E64840880690E54800880590089896382E
:100E800080B204900798401C80B2039004A90EC958
:100E900006F097FBEDA01821CDE90010DB48408853
:100EA0000690DA48008805900898463880B2049089
:100EB0000798BE3080B2039004A90EC906F081FBEA
:100EC00009B000BD7CB504460D461F20CD49088001
:100ED00005F1640083B204F2DB1082B22946204699
:100EE00006F0BAF905F164018BB204F176018AB219
:100EF00088B2294606F058F905F164018BB204F175
:100F0000EC018AB288B2294606F04EF905F1640177
:100F10008BB204F5B1718AB288B2294606F044F961
:100F20004FF61F0005F16206B3B204F17406B2B2C7
:100F3000AE1CB1B2A61C0090B0B206F0A9F847F6FC
:100F4000FF7005F16206B3B204F1EA06B2B2AE1C5C
:100F5000B1B204F178060090B0B206F099F84FF6FD
:100F6000074005F16206B3B204F5B176B2B2AE1C29
:100F7000B1B204F1EE060090B0B206F089F84CF27E
:100F8000186005F16206B3B204F2D916B2B2AE1C13
:100F9000B1B204F5B2760090B0B206F079F8ADA027
:100FA00018219A4ECDE900107388328805F1260683
:100FB000B1B204F13206B0B206F003FBA6A01821CC
:100FC000924ECDE900107388328805F12606B1B241
:100FD00004F1AA06B0B206F0F4FAA0A018218B4ED4
:100FE000CDE900107388328805F12606B1B204F508
:100FF0009176B0B206F0E5FA99A01821834ECDE9BA
:1010000000107388328805F12606B1B204F5CD765A
:10101000B0B206F0D6FA7CBD2DE9FC4704460D4679
:1010200016469946304606EBD071C1F34F0706EBE2
:10103000D0714910A6EB41011FFA81F8082E01DD9D
:10104000BDE8FC87B9F1000F2DD04FF4FC6007EB31
:10105000C70C0CEB071C05EB8C0C0CF1630C1FFA96
:101060008CF3C8EB081C0CEB8C0C04EB4C0C0CF157
:10107000950C1FFA8CF207EBC70C0CEB071C05EB69
:101080008C0C0CF1010C1FFA8CF1C8EB081C0CEB5A
:101090008C0C04EB4C0C0CF1010C00901FFA8CF042
:1010A00005F0F6FF2CE048F2304007EBC70C0CEBE4
:1010B000071C05EB8C0C0CF1630C1FFA8CF3C8EBCE
:1010C000081C0CEB8C0C04EB4C0C0CF1950C1FFA6F
:1010D0008CF207EBC70C0CEB071C05EB8C0C0CF12E
:1010E000010C1FFA8CF1C8EB081C0CEB8C0C04EB08
:1010F0004C0C0CF1010C00901FFA8CF005F0C8FFAD
:10110000002040490880AFF6DC101821DFF8FCC051
:10111000CDE90010BCF80230BCF8002005F1260C27
:101120001FFA8CF104F1230C1FFA8CF006F049FA37
:10113000AFF6FC101821DFF8D4C0CDE90010BCF8E0
:101140000230BCF8002005F1260C1FFA8CF104F1E6
:10115000B60C1FFA8CF006F034FAAFF61C201821FA
:10116000DFF8A8C0CDE90010BCF80230BCF80020C0
:1011700005F18A0C1FFA8CF104F11E0C1FFA8CF099
:1011800006F01FFAAFF63C201821DFF880C0CDE949
:101190000010BCF80230BCF8002005F18A0C1FFAE0
:1011A0008CF104F1AE0C1FFA8CF006F00AFA00BFC5
:1011B00046E72DE9FC4704460D46164699460027AA
:1011C0003046F11706EB91718910A6EB81011FFAE9
:1011D00081F8082E01DDBDE8FC87B9F1000F5FD072
:1011E0004FF4FC6007EBC70C0CEB071C05EB8C0CF9
:1011F0000CF1630C1FFA8CF308EB880CCCEB881C09
:1012000030E000001C0000202B313600CC03002011
:1012100053756E6E790000004265696A696E6720D9
:10122000556E6976657273697479206F6620506FA8
:1012300073747320616E642054656C65636F6D6DAB
:10124000756E69636174696F6E0000005475657333
:1012500064617900540000004C000000460000006A
:101260004D00000004EB4C0C0CF1750C1FFA8CF2D5
:1012700007EBC70C0CEB071C05EB8C0C0CF1010CFD
:101280001FFA8CF108EB880CCCEB881C04EB4C0C9F
:101290000CF1010C00901FFA8CF005F0F9FE2CE027
:1012A0004FF4FC6007EBC70C0CEB071C05EB8C0C38
:1012B0000CF1630C1FFA8CF308EB880CCCEB881C48
:1012C00004EB4C0C0CF1750C1FFA8CF207EBC70CFD
:1012D0000CEB071C05EB8C0C0CF1010C1FFA8CF1CC
:1012E00008EB880CCCEB881C04EB4C0C0CF1010CCB
:1012F00000901FFA8CF005F0CBFE1F20FE490880FD
:10130000AFF2B0001821DFF8F4C3CDE90010BCF84B
:101310000230BCF8002005F1260C1FFA8CF104F114
:10132000320C1FFA8CF006F04CF9AFF2D400182101
:10133000DFF8C8C3CDE90010BCF80230BCF80020CB
:1013400005F1260C1FFA8CF104F1AA0C1FFA8CF09F
:1013500006F037F9AFF2FC001821DFF8A0C3CDE9A1
:101360000010BCF80230BCF8002005F1260C1FFA72
:101370008CF104F5917C1FFA8CF006F022F9AFF2A3
:1013800020101821DFF874C3CDE90010BCF802303A
:10139000BCF8002005F1260C1FFA8CF104F5CD7C79
:1013A0001FFA8CF006F00DF900BF14E72DE9FC4799
:1013B00004460D46164699460027304606EBD07186
:1013C0004910A6EB41011FFA81F8082E01DDBDE8A6
:1013D000FC87B9F1000F29D047F6FF70C7EB071C57
:1013E00005EB8C0C0CF13B0C1FFA8CF308EBC80CD2
:1013F0000CEB081C04EB8C0C0CF1630C1FFA8CF248
:10140000C7EB071C05EB8C0C0CF1010C1FFA8CF1DF
:1014100008EBC80C0CEB081C04EB8C0C0CF1010C59
:1014200000901FFA8CF005F033FE28E04FF6FF70B5
:10143000C7EB071C05EB8C0C0CF13B0C1FFA8CF373
:1014400008EBC80C0CEB081C04EB8C0C0CF1630CC7
:101450001FFA8CF2C7EB071C05EB8C0C0CF1010C8E
:101460001FFA8CF108EBC80C0CEB081C04EB8C0C7D
:101470000CF1010C00901FFA8CF005F009FE4FF4FE
:10148000FC609D490880AFF2AC601821DFF86CC2A7
:10149000CDE90010BCF80230BCF8002005F1120CB8
:1014A0001FFA8CF104F1230C1FFA8CF006F089F876
:1014B000AFF2D4601821DFF844C2CDE90010BCF8C7
:1014C0000230BCF8002005F1120C1FFA8CF104F177
:1014D000870C1FFA8CF006F074F800BF77E72DE94F
:1014E000FC4704460D46164699460027304606EB53
:1014F000D0714910A6EB41011FFA81F8082E01DDD9
:10150000BDE8FC87B9F1000F29D047F6FF70C7EBA3
:10151000071C05EB8C0C0CF13B0C1FFA8CF308EB51
:10152000C80C0CEB081C04EB8C0C0CF1630C1FFAC0
:101530008CF2C7EB071C05EB8C0C0CF1010C1FFAAD
:101540008CF108EBC80C0CEB081C04EB8C0C0CF1B8
:10155000010C00901FFA8CF005F09AFD28E04FF680
:10156000FF70C7EB071C05EB8C0C0CF13B0C1FFA52
:101570008CF308EBC80C0CEB081C04EB8C0C0CF186
:10158000630C1FFA8CF2C7EB071C05EB8C0C0CF1FB
:10159000010C1FFA8CF108EBC80C0CEB081C04EBD7
:1015A0008C0C0CF1010C00901FFA8CF005F070FD12
:1015B0004FF4FC6050490880AFF2E0701821DFF86A
:1015C0003CC1CDE90010BCF80230BCF80020A5F108
:1015D0004D0C1FFA8CF104F1230C1FFA8CF005F06E
:1015E000F0FFAFF604001821DFF810C1CDE90010BC
:1015F000BCF80230BCF80020A5F14D0C1FFA8CF1AC
:1016000004F1870C1FFA8CF005F0DBFF00BF77E7D1
:101610002DE9FC4104460D4616469846304606EB39
:10162000D0714910A6EB41018FB2082E01DDBDE853
:10163000FC81B8F1000F21D047F6FF7005F17D0C59
:101640001FFA8CF3C7EBC70C0CEB8C0C04EBCC0C27
:101650000CF1A50C1FFA8CF205F11D0C1FFA8CF190
:10166000C7EBC70C0CEB8C0C04EBCC0C0CF11D0C79
:1016700000901FFA8CF005F00BFD20E04FF6FF7094
:1016800005F17D0C1FFA8CF3C7EBC70C0CEB8C0C2F
:1016900004EBCC0C0CF1A50C1FFA8CF205F11D0C1F
:1016A0001FFA8CF1C7EBC70C0CEB8C0C04EBCC0CC9
:1016B0000CF11D0C00901FFA8CF005F0E9FC0020E5
:1016C0000D490880AFF614101821DFF830C0CDE9BD
:1016D0000010BCF80230BCF8002005F13C0C1FFAE9
:1016E0008CF104F15D0C1FFA8CF005F06AFFAFF687
:1016F0003410182104E000001C000020CC0300205E
:10170000DFF844C4CDE90010BCF80230BCF800207A
:1017100005F13C0C1FFA8CF104F1E90C1FFA8CF076
:1017200005F04FFFAFF668101821DFF81CC4CDE9B3
:101730000010BCF80230BCF8002005F13C0C1FFA88
:101740008CF104F2751C1FFA8CF005F03AFF00BF13
:101750006DE72DE9F041074688460026FB484168C1
:1017600000208847F94890F8200000F08000002809
:101770004FD000244AE0002528E0F4488189C5EBD9
:10178000C50000EB800007EBC000A73081421BDAE8
:10179000EE488189C5EBC50000EB800007EBC00077
:1017A0001B30814210DDE948C18A08F17F00814287
:1017B0000ADAE648C18A08F11B00814204DD05EB24
:1017C0004400401CC6B203E0681C85B2022DD4DB85
:1017D00000BFCEB1DE480078B04201D1002612E051
:1017E000DB480078401EC2B2002341463846FFF76E
:1017F0000FFFD74806700078401EC2B20123414651
:101800003846FFF705FF03E0601C84B2012CB2DB11
:101810000EE0CF48007858B1CD480078401EC2B2E3
:10182000002341463846FFF7F3FE0020C849087000
:101830003046BDE8F0812DE9F04105460E464FF0F7
:101840000008C248416800208847C04890F820003E
:1018500000F08000002869D0002464E0002735E013
:10186000BA48818907EBC70000EB071205F1FF00BA
:1018700000EB82006430814226DAB448818907EBAC
:10188000C70000EB071205F1FF0000EB8200814268
:101890001ADDAE48C18AC4EB041206F1730000EBF6
:1018A00082003C3081420FDAA848C18AC4EB04129E
:1018B00006F1730000EB8200814205DD07EB440076
:1018C000401C00F0FF0803E0781C87B2022FC7DB42
:1018D00000BFB8F1000F24D09E480078404502D1E7
:1018E0004FF000081CE09B4B1B785B1EDAB206F140
:1018F000730399B205F1FF0398B20023FFF756FD79
:10190000944880F8008003461B785B1EDAB206F12B
:10191000730399B205F1FF0398B20123FFF746FD67
:1019200003E0601C84B2012C98DB00BF4046BDE898
:10193000F0812DE9F04105460E464FF0000883483E
:10194000416800208847814890F8200000F080001E
:10195000002869D0002464E0002735E07B488189B5
:1019600007EBC70000EB071205F1FF0000EB820058
:101970006430814226DA7548818907EBC70000EBA5
:10198000071205F1FF0000EB820081421ADD6F486B
:10199000C18AC4EB041206F1140000EB82003C3053
:1019A00081420FDA6948C18AC4EB041206F11400BF
:1019B00000EB8200814205DD07EB4400401C00F093
:1019C000FF0803E0781C87B2022FC7DB00BFB8F125
:1019D000000F24D060480078404502D14FF0000845
:1019E0001CE05D4B1B785B1EDAB206F1140399B262
:1019F00005F1FF0398B20023FFF7D8FC564880F8A2
:101A0000008003461B785B1EDAB206F1140399B21C
:101A100005F1FF0398B20123FFF7C8FC03E0601C47
:101A200084B2012C98DB00BF4046BDE8F0812DE96F
:101A3000F041074688460026444841680020884710
:101A4000424890F8200000F08000002857D0002481
:101A500052E0002530E03D48818905EB8500C0EB70
:101A6000851007EB40007630814223DA37488089C1
:101A700005EB8501C1EB851107EB4101884219DDBA
:101A80003248C18A04EBC40000EB041008EB80006C
:101A9000643081420EDA2D48C08A04EBC40101EBA8
:101AA000041108EB8101884204DD05EB4400401C71
:101AB000C6B203E0681C85B2042DCCDB00BFCEB1FA
:101AC00026480078B04201D1002612E02348007871
:101AD000401EC2B2002341463846FFF76AFB1F484A
:101AE00006700078401EC2B2012341463846FFF717
:101AF00060FB03E0601C84B2012CAADB0EE01748F7
:101B0000007858B115480078401EC2B20023414603
:101B10003846FFF74EFB0020104908703046BDE8FC
:101B2000F0812DE9F04107468846002607484168C4
:101B300000208847054890F8200000F08000002829
:101B400064D000245FE00000CC03002024000020CB
:101B500000000020010000200200002003000020FF
:101B6000002530E0FE488189C5EB051000EB8000C0
:101B700007EB40009630814223DAF9488089C5EBB3
:101B8000051101EB810107EB4101884219DDF448A1
:101B9000C18A04EBC40000EB041008EB8000643041
:101BA00081420EDAEE48C08A04EBC40101EB041155
:101BB00008EB8101884204DD05EB4400401CC6B2FD
:101BC00003E0681C85B2022DCCDB00BFCEB1E54836
:101BD0000078B04201D1002612E0E2480078401EB1
:101BE000C2B2002341463846FFF716FADD480670B8
:101BF0000078401EC2B2012341463846FFF70CFA76
:101C000003E0601C84B2022CAADB0EE0D548007809
:101C100058B1D4480078401EC2B20023414638462D
:101C2000FFF7FAF90020CF4908703046BDE8F0818F
:101C300010B507F031FEA8200AF038F80120CA4993
:101C4000086014200AF094F80020C849C1F8A002E6
:101C500010BD8EB000200C900B900A9000BF814602
:101C6000834640F2E730059000BF002004900390C7
:101C70004FF4A0600AF060F9A8200AF017F84FF4BA
:101C8000E1300AF0A2F84FF4E13009F0B7FD00F0BE
:101C90006BFE01F049FD05F0C7FC09F063FEB04999
:101CA00008688047B2484168A820884700200CF0A7
:101CB000A4FE02200CF0A1FE0CF09EFFAD49012213
:101CC0000868ADA10EF099FCAA4901224868ABA1B1
:101CD0000EF093FC10F0ADFD4FF47840A849088059
:101CE00000BF1422A7A1A8A010F079FF0028F8D106
:101CF000F9E30A200AF03CF8012010F043FF4FF608
:101D0000FF7001F0DFFC4FF478409D490880F0201F
:101D100010239FA21E210090002010F0F6FEF0205C
:101D20000C23A1A232210090002010F0EEFE202111
:101D300000200CF024FF0446322292A1A3A010F050
:101D40004EFF14228FA1A4A010F049FF4FF47A7027
:101D50000AF00EF84FF47A700AF00AF84FF47A702D
:101D60000AF006F84FF47A700AF002F89C4803680B
:101D70009C489DA10268204613F032FA00BF4FF440
:101D800096729EA1204610F02AFF0028F7D100BFCE
:101D900049F0010909F00100002863D04FF6FF70F7
:101DA00001F090FC4FF4784075490880F020102332
:101DB00095A21E210090002010F0A7FE00200C210B
:101DC00097A21023CDE900210290C82232211E20C3
:101DD00010F03BFE9A4850F8291006AB994802686B
:101DE00099A011F0E9FC00B1D2E7142265A19BA0F3
:101DF00010F0F5FE934806AA9BA10368204613F055
:101E0000EFF923E04FF6FF7001F05CFC4FF47840EF
:101E10005B490880F02010239AA22821009000201E
:101E200010F073FE00200C219AA20B46CDE9002190
:101E30000290C82250211E2010F007FE002005F05D
:101E400011FC8246BAF1040F00D1A1E7C8224DA1CE
:101E5000204610F0C4FE0028D4D1C82249A192A087
:101E600010F0BDFE4FF6FF7001F02CFC40F2BA21DD
:101E70000220FFF727F801203B49091D08603B4974
:101E8000C1F8A8024FF478403D49088006A811F037
:101E90003FF91F203A490880002087490880FCE369
:101EA0000A2009F065FF002005F0DCFB40F2BA21B2
:101EB0000220FFF7BCFD0546002D4FD0012D06D0B6
:101EC000022D34D0032D4AD0042D2FD158E17B4868
:101ED000008801F0F7FB40F2BA210220FEF7F2FF82
:101EE0004FF4D7710220FEF7ACFD00200C900A9051
:101EF00001200B90FFF79CFE10F0C9FE142221A1D7
:101F00006FA010F06CFE71A1204613F069F900205B
:101F10000C210B46C822CDE90041029064215420D7
:101F200010F093FD21466EA009F0CBFC5AE1634806
:101F3000008801F0C7FB40F2BA210220FEF7C2FF81
:101F4000FA210220FEF753FB00200C900B90012099
:101F50000A90FFF76DFE10F09AFEC3E043E1DDE06A
:101F60002400002004000020A0824242008042425F
:101F7000D8020020E8010020303A0000313A000089
:101F80001C0000204F4B0000415445300000000071
:101F900041544B2D45535020574946492D535441E8
:101FA00020C4A3CABD000000D5FDD4DAC5E4D6C361
:101FB00041544B2D45535038323636C4A3BFE9A3A4
:101FC000ACC7EBC9D4B5C82E2E2E000041542B430C
:101FD000574D4F44453D310041542B52535400005E
:101FE000200200201802002041542B43574A415040
:101FF0003D222573222C2225732200005749464991
:1020000020474F542049500041544B2D45535020F8
:10201000574946492D53544120B2E2CAD40000002A
:10202000D5FDD4DAC5E4D6C341544B2D455350C435
:10203000A3BFE92CC7EBC9D4B5C82E2E2E000000D3
:102040003C02002014020020574946492D535441B8
:1020500020D4B6B6CB4950C9E8D6C30041542B436F
:1020600049504D55583D300041542B43495053542D
:102070004152543D22544350222C222573222C25B8
:1020800073000000574B5F55503AB7B5BBD8D6D850
:10209000D1A1000041544B2D45535020C1ACBDD3BC
:1020A000544350CAA7B0DC0041542B4349504D4F14
:1020B00044453D31000000006C0000201E0000205F
:1020C00041542B43495053454E4400005448495312
:1020D0002049532054454D504552415455524500D6
:1020E000257300001422AFF26411AFF22C0010F03F
:1020F00076FDFEA1204613F073F800200C210B465C
:10210000C822CDE9004102906421542010F09DFCCA
:102110002146AFF2340009F0D4FB63E0F7480088B1
:1021200001F0D0FA40F2BA210220FEF7CBFE8C215A
:102130005520FEF79DF901200C9000200B900A908D
:10214000FFF776FD10F0A3FD1422AFF2C811AFF235
:10215000900010F044FDEAA1204613F041F8002061
:102160000C210B46C822CDE9004102906421542085
:1021700010F06BFC2146AFF2980009F0A2FB31E0B1
:10218000DE48008801F09EFA40F2BA210220FEF7F4
:1021900099FE8C215520FEF7C8F901200C900020F3
:1021A0000B900A90FFF744FD10F071FD1422AFF27E
:1021B0002C21AFF2F40010F012FDD5A1204613F04F
:1021C0000FF800200C210B46C822CDE900410290F7
:1021D0006421542010F039FC2146AFF2FC0009F0D4
:1021E00070FB00BF00BFBBF1000F03D0ABF10100DB
:1021F00000F0FF0BBBF1010F08D14FF6FF70702309
:10220000EF2264210090542004F042FF0598401C06
:1022100080B205900A2009F0ABFDC248008800F4A6
:102220000040C8B1BF480088C0F30E0004900021F0
:10223000BD4A049811541146AFF25C1012F0C4FF6D
:102240000020B849088003982B2803D04FF47A70F7
:10225000059001E0002005900598B0F57A7F20D127
:1022600010F066FD039003982B280CD100200C2160
:10227000AEA20B46CDE900210290C82250213C209D
:1022800010F0E3FB0BE000200C21ABA20B46CDE9E4
:1022900000210290C82250213C2010F0D6FB0020E3
:1022A0000590012010F06EFC0C98002878D08C214D
:1022B0005520FFF736FC06463046012E06D0022890
:1022C00027D0032849D0042822D16AE000209D4964
:1022D0000860FFF7ADFC10F0DAFC1422AFF25C31BD
:1022E000AFF2242010F07BFC97A1204612F078FF7B
:1022F00000200C210B46C822CDE900410290642148
:10230000542010F0A2FB2146AFF22C2009F0D9FA9C
:102310006BE000208B49091D0860FFF789FC10F075
:10232000B6FC1422AFF2A431AFF26C2010F057FCCF
:102330008AA1204612F054FF00200C210B46C8222F
:10234000CDE9004102906421542010F07EFB21462B
:10235000AFF2742009F0B5FA47E00120794908602E
:10236000FFF766FC10F093FC1422AFF2E831AFF2F5
:10237000B02010F034FC7EA1204612F031FF002086
:102380000C210B46C822CDE9004102906421542063
:1023900010F05BFB2146AFF2B82009F092FA24E07E
:1023A00024E001206749091D0860FFF741FC10F097
:1023B0006EFC1422AFF23441AFF2FC2010F00FFC9F
:1023C00070A1204612F00CFF00200C210B46C82201
:1023D000CDE9004102906421542010F036FB2146E3
:1023E000AFF2043009F06DFA00BF00BF0B9800286F
:1023F00078D04FF4D7710220FFF79BFA0D904FF47D
:10240000D7710220FFF717FA07460D98012802D06E
:10241000022846D122E000204A490860FFF708FC64
:1024200010F035FC1422AFF2A441AFF26C3010F082
:10243000D6FB59A1204612F0D3FE00200C210B46FA
:10244000C822CDE9004102906421542010F0FDFA29
:102450002146AFF2743009F034FA22E00120394904
:102460000860FFF7E5FB10F012FC1422AFF2EC411C
:10247000AFF2B43010F0B3FB4DA1204612F0B0FE25
:1024800000200C210B46C822CDE9004102906421B6
:10249000542010F0DAFA2146AFF2BC3009F011FAFC
:1024A00000BF00BF012F02D0022F1DD1A2E00020EB
:1024B0002449091D0860FFF7BBFB10F0E8FB14225C
:1024C000AFF24051AFF2084010F089FB3EA1204628
:1024D00012F086FE00200C210B46C822CDE90041F7
:1024E00002907DE0AAE005E1A7E0000054484953CE
:1024F000204953204C494748540000001E0000204A
:10250000544849532049532046494E4755524500A7
:1025100054484953204953204D5920574F524C4459
:10252000000000006C00002030080020C1ACBDD3CA
:10253000B3C9B9A600000000C1ACBDD3CAA7B0DCC6
:1025400000000000A48242425448495320495320CD
:102550004C454430204F4E21000000005448495360
:10256000204953204C454431204F4E2100000000AB
:1025700054484953204953204C454430204F464647
:102580002100000054484953204953204C45443110
:10259000204F46462100000054484953204953200B
:1025A00046454E475348414E204F4E210000000003
:1025B000544849532049532046454E475348414EBD
:1025C000204F4646210000005448495320495320DB
:1025D0004A49415348495149204F4E2100000000CB
:1025E0006421542010F031FA2146AFF20C5009F06A
:1025F00068F922E0012040490860FFF719FB10F05C
:1026000046FB1422AFF28461AFF24C5010F0E7FAAF
:102610003AA1204612F0E4FD00200C210B46C8220E
:10262000CDE9004102906421542010F00EFA2146B9
:10263000AFF2545009F045F900BF00BF0A980028D6
:1026400056D0FA210220FFF784F880464046B8F1C0
:10265000010F02D002284AD125E001202649091F96
:102660000860FFF7E5FA10F012FB1422AFF2EC61FC
:10267000AFF2B45010F0B3FA26A1204612F0B0FD2C
:1026800000200C210B46C822CDE9004102906421B4
:10269000542010F0DAF9214600E029E0AFF2C050F2
:1026A00009F00FF923E000201349091F0860FFF724
:1026B000BFFA10F0ECFA1422AFF23871AFF20060FA
:1026C00010F08DFA18A1204612F08AFD00200C218E
:1026D0000B46C822CDE9004102906421542010F03D
:1026E000B4F92146AFF2086009F0EBF800BF00BF73
:1026F000FFF7D6BBFFF7FDBAA882424254484953C0
:10270000204953204A49415348495149204F4646A0
:102710002100000054484953204953204C49474860
:1027200054204F4646210000544849532049532025
:102730004C49474854204F4E21000000704700BFCD
:10274000FEE700BFFEE700BFFEE700BFFEE7704701
:1027500070477047704700000CB500200190009052
:102760007648006840F480307449086000BF7348C0
:10277000006800F4003000900198401C019000981F
:1027800018B90198B0F5A04FF1D16C48006800F479
:10279000003010B10120009001E00020009000986E
:1027A000012846D165484030006840F080506349B8
:1027B000403108606248006840F440406049086069
:1027C0005E48083000685D490831086008460068C6
:1027D00040F4004008600846006840F4A0500860DB
:1027E0005848091F0860081F006840F08070091FE2
:1027F000086000BF5148006800F000700028F9D060
:1028000040F20570504908604C480830006820F0DC
:1028100003004A49083108600846006840F0020099
:10282000086000BF45480830006800F00C00082828
:10283000F8D10CBD10B54548006840F4700043491C
:1028400008603E48006840F001003C4908600020F4
:102850003A4908310860394800683D49084037491D
:1028600008603C48091D0860081F006820F48020AB
:10287000091F0860002031490C310860FFF76CFF28
:102880004FF0006031498039086010BD70B50020FC
:102890000022022300240221284D08352D6805F06E
:1028A0000C0020B1042806D0082834D107E02A4DB6
:1028B0002A4E356033E02A4D284E35602FE01F4DFB
:1028C0002D1D2D68C5F380541C4D2D1D2D6805F060
:1028D0003F0154B1224DB5FBF1F5184E361D366857
:1028E000C6F3881605FB06F209E01B4DB5FBF1F5B2
:1028F000124E361D3668C6F3881605FB06F20F4DDC
:102900002D1D2D68C5F301456D1C6B00B2FBF3F561
:10291000124E356003E0104D104E356000BF00BF11
:10292000064D08352D68C5F303150E4E705D0B4D31
:102930002D68C540094E356070BD0000003802406A
:102940000070004008544007003C024088ED00E061
:10295000FFFFF6FE103000240024F40008000020E1
:1029600000127A000C0000201CB5012120200AF082
:102970005BF94FF4C060009001208DF80400002046
:102980008DF8060003208DF8050001208DF8070062
:102990006946044809F0C6FB4FF4C061014809F0DC
:1029A0003DFC1CBD0014024001B5BDF800000090C4
:1029B000BDF80000F849088008BD01B5BDF8000069
:1029C0000090BDF80000F449891C088008BD08B5D6
:1029D000F148801C00880090BDF8000008BDEE4A58
:1029E00010804FF0D842A2F88010704710B504460E
:1029F0002046FFF7D9FF052009F072F9FFF7E7FF3E
:102A000010BDE6480089E44908807047E249891C06
:102A10000880704730B5014601F01F04C1F345132B
:102A2000CA0AE50205EB43151544A8B230BD00BF44
:102A30000100A0F10102D0B2FAD1704730B50446CE
:102A40000D46D648808849F24131884205D0D348A6
:102A5000808845F21031884214D1D0494889FFF767
:102A6000A3FF2012FFF7A9FFE0B2FFF7A6FFCB49B3
:102A70008889FFF799FF2812FFF79FFFE8B2FFF759
:102A80009CFFABE0C548808846F6040188421DD112
:102A9000C2488079012804D1C0480088401E001B2C
:102AA00084B2BE494889FFF77FFF2012FFF785FFF8
:102AB000E0B2FFF782FFB9498889FFF775FF281256
:102AC000FFF77BFFE8B2FFF778FF87E0B348808825
:102AD00041F66311884247D1B0488079A8B9AF4820
:102AE0000088401E001B84B2AC494889FFF75CFF98
:102AF0000020FFF762FF0020FFF75FFF2012FFF7C3
:102B00005CFFE0B2FFF759FF16E0A4494889FFF7E0
:102B10004BFF2012FFF751FFE0B2FFF74EFF9F4936
:102B20000988491EC1F30F20FFF747FF9B49097829
:102B3000491EC8B2FFF741FF98498889FFF734FF63
:102B40002812FFF73AFFE8B2FFF737FF93494988A9
:102B5000491EC1F30F20FFF730FF90498978491EC5
:102B6000C8B2FFF72AFF39E08C48808845F210513F
:102B7000884220D189494889FFF716FF2012FFF7C4
:102B80001CFF86494989491C88B2FFF70DFFE0B256
:102B9000FFF713FF81498889FFF706FF2812FFF727
:102BA0000CFF7E498989491C88B2FFF7FDFEE8B217
:102BB000FFF703FF12E079488079012804D17748B4
:102BC0000088401E001B84B2744948892146FFF7E3
:102BD00006FF724988892946FFF701FF30BD2DE9BC
:102BE000F04105460E4600240027A0466B480088A9
:102BF000A84203DD69484088B04202DC0020BDE8FD
:102C0000F08131462846FFF719FF6448808849F271
:102C10004131884211D06148808846F604018842DB
:102C20000BD05E48808845F21031884205D05B4861
:102C3000808841F66311884203D12E20FFF7B4FE4D
:102C40000DE05648808845F21051884204D14FF477
:102C50003850FFF7A9FE02E02220FFF7A5FE4F48FB
:102C6000808849F22031884202D10220FFF7DFFE3E
:102C7000FFF7ADFE04464948808841F6631188425B
:102C800001D12046BBE70220FFF7D1FEFFF79FFEF0
:102C900004464248808849F2413188420BD03F487F
:102CA000808845F21031884205D03C48808845F242
:102CB000105188420AD10220FFF7B9FEFFF787FEC4
:102CC0008046E7B24FF6FF7000EA07273348808856
:102CD00049F22531884216D03048808844F2355177
:102CE000884210D02D488088091F88420BD02B487D
:102CF00080884BF20551884205D0284880884CF2E4
:102D00000551884201D1204679E72448808849F25C
:102D1000413188420BD02148808845F210318842E9
:102D200005D01E48808845F21051884207D1E01234
:102D3000C002B91240EA411040EAE8205FE72046AD
:102D4000FFF768FE5BE700B51448808849F241311F
:102D5000884211D01148808846F6040188420BD081
:102D60000E48808845F21031884205D00B48808893
:102D700041F66311884203D12920FFF715FE14E0C4
:102D80000648808845F21051884209D14FF42450FA
:102D9000FFF70AFE09E000007E00006CCC03002073
:102DA00040F273110720FFF71AFE00BD00B5FD4881
:102DB000808849F24131884211D0FA48808846F62D
:102DC000040188420BD0F748808845F210318842D0
:102DD00005D0F448808841F66311884203D1282049
:102DE000FFF7E2FD0EE0EF48808845F2105188427F
:102DF00004D14FF42050FFF7D7FD03E00021072056
:102E0000FFF7EDFD00BDF0B5054600240027E548BD
:102E1000807901280BD1E348808846F60401884276
:102E200005D0E048808841F66311884208D1DD482A
:102E30008079F0B9DB48808841F66311884218D167
:102E4000082D15D2DFE805F00406080A0C0E101252
:102E500006250DE007250BE0042509E0052507E020
:102E6000012505E0002503E0032501E0022500BF60
:102E700000BFCC48808849F24131884217D0C94808
:102E8000808846F60401884211D0C648808845F201
:102E9000103188420BD0C348808845F210518842D7
:102EA00005D0C048808841F6631188427ED1082D44
:102EB0001CD2DFE805F00406090C0F12151800BF3C
:102EC00014E044F0800411E044F040040EE044F0CB
:102ED000C0040BE044F0200408E044F0600405E086
:102EE00044F0A00402E044F0E00400BF00BFAD489D
:102EF000808845F21051884202D14FF4585700E0C3
:102F00003627A848808845F2103188420DD0A54860
:102F1000808845F21051884207D0A248808841F647
:102F20006311884201D044F008049E48808846F628
:102F30000401884201D144F0020421463846FFF7DB
:102F40004EFD9848808841F6631188421DD004F0F8
:102F5000200068B19348008892494988884214DA71
:102F60009048068840888F490880084646800CE0D3
:102F70008C4800888B494988884206DD8948068844
:102F8000408888490880084646808648808845F2FF
:102F90001051884254D183494889FFF705FD00202C
:102FA000FFF70BFD7F494989491C00E077E088B2B3
:102FB000FFF7FAFC0020FFF700FD7A494989891CD8
:102FC00088B2FFF7F1FC77490988491EC1F30F2049
:102FD000FFF7F3FC73494989C91C88B2FFF7E4FC89
:102FE00070490978491EC8B2FFF7E7FC6D49888926
:102FF000FFF7DAFC0020FFF7E0FC6A498989491CE9
:1030000088B2FFF7D1FC0020FFF7D7FC654989891A
:10301000891C88B2FFF7C8FC62494988491EC1F380
:103020000F20FFF7CAFC5F498989C91C88B2FFF7E6
:10303000BBFC5C498978491EC8B2FFF7BEFC55E06D
:1030400058494889FFF7B0FC0020FFF7B6FC002084
:10305000FFF7B3FC53490988491EC1F30F20FFF75E
:10306000ACFC50490978491EC8B2FFF7A6FC4D498F
:103070008889FFF799FC0020FFF79FFC0020FFF7ED
:103080009CFC48494988491EC1F30F20FFF795FC75
:1030900044498978491EC8B2FFF78FFC26E0082D05
:1030A0001CD2DFE805F004070A0D0F12151844F0D2
:1030B000300413E044F0100410E044F020040DE06C
:1030C00000BF0BE044F0380408E044F0280405E0B9
:1030D00044F0180402E044F0080400BF00BF0327D6
:1030E00044F4805421463846FFF779FCF0BD30B5F2
:1030F00004460D4629462046FFF7A0FCFFF781FC59
:10310000294800882949088030BD70B504460D461D
:1031100016462448808849F24131884205D021482A
:10312000808845F21031884214D11E494889FFF742
:103130003BFC2012FFF741FCE0B2FFF73EFC1949CF
:103140008889FFF731FC2812FFF737FCE8B2FFF758
:1031500034FC93E01348808845F21051884227D10F
:1031600010494889FFF720FC2012FFF726FC0D4983
:103170004989491C88B2FFF717FCE0B2FFF71DFC34
:1031800008498889FFF710FC2812FFF716FC05494B
:103190008989491C88B2FFF707FCE8B2FFF70DFCEC
:1031A0006CE00000CC0300201C0000208000006CBC
:1031B000FE48808841F66311884228D1FB48807917
:1031C00020B9FA480088401E001B84B2F74948899C
:1031D000FFF7EAFB2012FFF7F0FBE0B2FFF7EDFB91
:1031E0002012FFF7EAFBE0B2FFF7E7FBEF4988891F
:1031F000FFF7DAFB2812FFF7E0FBE8B2FFF7DDFB91
:103200002812FFF7DAFBE8B2FFF7D7FB36E0E74812
:10321000808846F6040188421DD1E448807901285F
:1032200004D1E2480088401E001B84B2DF4948896F
:10323000FFF7BAFB2012FFF7C0FBE0B2FFF7BDFBC0
:10324000DA498889FFF7B0FB2812FFF7B6FBE8B22E
:10325000FFF7B3FB12E0D5488079012804D1D348A9
:103260000088401E001B84B2D04948892146FFF7E0
:10327000B6FBCE4988892946FFF7B1FBCB480089C8
:10328000CB4908804FF0D840A0F8806070BD70B581
:103290002DED048B0446BE20FFF786FB0520FFF7CB
:1032A0008CFB204613F03AFD41EC190B9FEDC10B4E
:1032B00053EC102B13F082FD41EC180B13F0EAFCD9
:1032C00085B22846FFF779FB0120FFF776FBFF2048
:1032D000FFF773FB0020FFF770FB0020FFF76DFB8B
:1032E000BDEC048B70BD10B50446002C66D1AF490F
:1032F0008871F02008804FF4A070488008468088CC
:1033000049F2413188420BD0A848808846F6040132
:10331000884205D0A548808845F2103188421AD1EC
:103320002C20A24908812A2048812B208881084628
:10333000808846F60401884205D09C48808845F282
:103340001031884206D14FF4A070984908804FF49C
:10335000F0704880A1E09548808845F2105188427D
:1033600010D14FF43050914908814FF428504881D2
:103370004FF42C5088814FF4F07008804FF448705F
:1033800048808AE08948808841F6631188420DD1DF
:103390002C20864908812B2048812A2088814FF4DF
:1033A000F07008804FF44870488076E022207F4912
:1033B000088120204881212088816EE001207B49FE
:1033C00088714FF4A0700880F020488008468088FB
:1033D00049F24131884205D07448808845F2103165
:1033E000884207D12C20714908812A2048812B204E
:1033F00088813FE06D48808846F60401884207D105
:103400002C206A4908812B2048812A20888131E0BC
:103410006648808845F21051884210D14FF43050F0
:10342000624908814FF4285048814FF42C5088811C
:103430004FF4487008804FF4F07048801AE05B4801
:10344000808841F6631188420DD12C2057490881AC
:103450002A2048812B2088814FF4487008804FF43F
:10346000F070488006E022205049088121204881E0
:10347000202088814D48808846F60401884205D086
:103480004A48808845F21031884206D14FF4F070E6
:10349000464908804FF4A07048800020FFF7B3FC35
:1034A00010BD2DE9F04F86B004460D469046994672
:1034B00004EB0800401E86B205EB0900401E87B2EF
:1034C0003A48808849F24131884215D0374880888F
:1034D00045F2103188420FD03448808846F6040106
:1034E000884209D031488079012826D12F48808828
:1034F00041F66311884220D12C494889FFF754FADC
:103500002012FFF75AFAE0B2FFF757FA3012FFF72E
:1035100054FAF0B2FFF751FA24498889FFF744FAC8
:103520002812FFF74AFAE8B2FFF747FA3812FFF716
:1035300044FAF8B2FFF741FAC1E01C48808841F62E
:10354000631188423DD119480088A0EB0800001B98
:1035500084B205EB0900401E1FFA80F9134948891F
:10356000FFF722FA2012FFF728FAE0B2FFF725FA58
:1035700004EB0801491EC1F30F20FFF71EFA04EB0C
:103580000801491EC8B2FFF718FA08498889FFF7F1
:103590000BFA2812FFF711FAE8B2FFF70EFA4FEA1A
:1035A0002920FFF70AFA09F0FF0007E0CC0300200A
:1035B0007E00006C6666666666660440FFF7FDF98D
:1035C0007DE0FE48808845F21051884244D1FB4995
:1035D0004889FFF7E9F92012FFF7EFF9F749498920
:1035E000491C88B2FFF7E0F9E0B2FFF7E6F9F349CA
:1035F0004989891C88B2FFF7D7F93012FFF7DDF946
:10360000EE494989C91C88B2FFF7CEF9F0B2FFF73D
:10361000D4F9EA498889FFF7C7F92812FFF7CDF9ED
:10362000E6498989491C88B2FFF7BEF9E8B2FFF77D
:10363000C4F9E2498989891C88B2FFF7B5F93812C3
:10364000FFF7BBF9DD498989C91C88B2FFF7ACF9DE
:10365000F8B2FFF7B2F932E0D848807901280ED1EC
:10366000AA46BB46D5480088801B401E80B2019008
:10367000D2480088001B401E80B2009003E0A246A2
:10368000B346019500975020059051200490522098
:1036900003905320029051460598FFF7A0F9594630
:1036A0000498FFF79CF901990398FFF798F900999E
:1036B0000298FFF794F929462046FFF7BFF906B0B4
:1036C000BDE8F08F70B504460026BC4805884088E8
:1036D0004543BA48808846F60401884216D1B74867
:1036E0008079012812D10020B44988712A204881AC
:1036F0002B20888100210846FFF7A0F90120AF495F
:1037000088712B2048812A20888103E00021084607
:10371000FFF794F9FFF775F9002602E0A848048046
:10372000761CAE42FAD370BD00B5A1B00020209047
:1037300001217A2009F078FA0121084609F0ACFA53
:103740004FF400401E9001208DF87C0000208DF881
:103750007E0002208DF87D0001208DF87F001EA9DB
:10376000984808F0DFFC4CF233701E9002208DF870
:103770007C0000208DF87E0003208DF87D00012064
:103780008DF87F001EA9904808F0CCFC4FF68070A1
:103790001E9002208DF87C0000208DF87E00032012
:1037A0008DF87D0001208DF87F001EA9874808F064
:1037B000B9FC4FF480501E9002208DF87C00002050
:1037C0008DF87E0003208DF87D0001208DF87F00AC
:1037D0001EA97F4808F0A6FC4FF480501E900220DE
:1037E0008DF87C0000208DF87E0003208DF87D0090
:1037F00001208DF87F001EA9764808F093FC0C226A
:103800000021714808F019FD0C2201216E4808F0D2
:1038100014FD0C2204216C4808F00FFD0C22052138
:10382000694808F00AFD0C220821674808F005FDE8
:103830000C220921644808F000FD0C220A2162488C
:1038400008F0FBFC0C220E215F4808F0F6FC0C226D
:103850000F215D4808F0F1FC0C2207215B4808F0BD
:10386000ECFC0C220821594808F0E7FC0C22092145
:10387000564808F0E2FC0C220A21544808F0DDFC0E
:103880000C220B21514808F0D8FC0C2211464F485D
:1038900008F0D3FC0C220D214C4808F0CEFC0C2281
:1038A0000E214A4808F0C9FC0C220F21474808F0B5
:1038B000C4FC0C221146464808F0BFFC0C221146FD
:1038C000444808F0BAFC0F200890002009903C20E2
:1038D0000A9000200B900C900D900E900920019002
:1038E000002002900820039000200490059006908C
:1038F000079006200F900020109011901020129039
:103900000020139015901490169017904FF480504B
:103910001890002019904FF480401A9000201B90BE
:1039200008A81C9001A81D900FA808F0DAFC01213E
:10393000062008F061FD322008F01AFA012100206B
:10394000FFF74DF8322008F013FA0020FFF74EF889
:103950001A49888008468088FF280ADB0846808844
:103960004FF6FF71884204D014488088B0F5134F99
:103970007ED1D320FFF718F8FFF729F80F49888088
:10398000FFF725F80D498880FFF721F80B4988805B
:10399000084680884FF6FF7101EA002007498880B9
:1039A000FFF715F8054989880843044988800846C7
:1039B000808849F2413188425AD00DE0CC03002082
:1039C0008000006C00040240000C02400010024025
:1039D0000014024000180240BF20FEF7E5FFFEF78A
:1039E000F6FFFE498880FEF7F2FFFC498880FEF76B
:1039F000EEFFFA498880FEF7EAFFF849888008461A
:103A000080884FF6FF7101EA0020F4498880FEF7B4
:103A1000DEFFF24989880843F0498880084680889B
:103A200046F6040188427AD0D420FEF7BDFFFEF7A7
:103A3000CEFFEA498880FEF7CAFFE8498880FEF792
:103A4000C6FFE6498880084680884FF6FF7101EA84
:103A50000020E2498880FEF7BAFFE04989880843E0
:103A6000DE4988800846808845F21031884200E0AF
:103A700055E054D04FF45A40FEF796FFFEF7A7FFEB
:103A8000D64988804FF45B40FEF78EFFFEF79FFF1C
:103A9000D2498880084680884FF6FF7101EA0020ED
:103AA000CE4988804FF45C40FEF77EFFFEF78FFF23
:103AB000CA4989880843C949888008468088B0F582
:103AC000004F02D145F210508880C448808845F2EA
:103AD0001051884223D0A120FEF766FFFEF777FF42
:103AE000BE498880FEF773FFBC49888008468088FD
:103AF0004FF6FF7101EA0020B8498880FEF767FFA2
:103B0000B64989880843B54988800846808845F2C7
:103B10006171884203D141F66310B0498880AF4893
:103B2000808849F24131884211D0AC48808845F202
:103B3000103188420BD0A948808845F21051884244
:103B400005D0A648808841F6631188421DD1A4485B
:103B5000006820F00F004FF02041C1F81C0108461A
:103B6000D0F81C0120F47060C1F81C010846D0F8A0
:103B70001C0140F00300C1F81C010846D0F81C01EC
:103B800040F40070C1F81C0128E09448808846F693
:103B90000401884205D0914880884CF20551884242
:103BA0001CD18F48006820F00F004FF02041C1F871
:103BB0001C010846D0F81C0120F47060C1F81C01FB
:103BC0000846D0F81C0140F00A00C1F81C01084664
:103BD000D0F81C0140F44060C1F81C017F48818886
:103BE00080A011F0F1FA7D48808849F24131884285
:103BF0007ED1CF20FEF7D8FE0020FEF7DEFEC120EA
:103C0000FEF7DBFE3020FEF7D8FEED20FEF7CCFEFF
:103C10006420FEF7D2FE0320FEF7CFFE1220FEF74F
:103C2000CCFE8120FEF7C9FEE820FEF7BDFE852010
:103C3000FEF7C3FE1020FEF7C0FE7A20FEF7BDFEA1
:103C4000CB20FEF7B1FE3920FEF7B7FE2C20FEF7A1
:103C5000B4FE0020FEF7B1FE3420FEF7AEFE0220D7
:103C6000FEF7ABFEF720FEF79FFE2020FEF7A5FE35
:103C7000EA20FEF799FE0020FEF79FFE0020FEF7E7
:103C80009CFEC020FEF790FE1B20FEF796FEC12092
:103C9000FEF78AFE0120FEF790FEC520FEF784FEA7
:103CA0003020FEF78AFE3020FEF787FEC720FEF7A1
:103CB0007BFEB720FEF781FE3620FEF775FE48201A
:103CC000FEF77BFE3A20FEF76FFE5520FEF775FEED
:103CD000B120FEF769FE0020FEF76FFE1A20FEF706
:103CE0006CFEB620FEF760FE0A20FEF766FE00E0DE
:103CF000A5E0A220FEF761FEF220FEF755FE0020AF
:103D0000FEF75BFE2620FEF74FFE0120FEF755FE74
:103D1000E020FEF749FE0F20FEF74FFE2A20FEF7B7
:103D20004CFE2820FEF749FE0820FEF746FE0E2036
:103D3000FEF743FE0820FEF740FE5420FEF73DFE4E
:103D4000A920FEF73AFE4320FEF737FE0A20FEF7D1
:103D500034FE0F20FEF731FE0020FEF72EFE00207D
:103D6000FEF72BFE0020FEF728FE0020FEF725FEC2
:103D7000E120FEF719FE0020FEF71FFE1520FEF7DA
:103D80001CFE1720FEF719FE0720FEF716FE112075
:103D9000FEF713FE0620FEF710FE2B20FEF70DFEA9
:103DA0005620FEF70AFE3C20FEF707FE0520FEF730
:103DB00004FE1020FEF701FE0F20FEF7FEFD3F205F
:103DC000FEF7FBFD3F20FEF7F8FD0F20FEF7F5FDA7
:103DD0002B20FEF7E9FD00200CE00000CC030020C2
:103DE0001C0100A0204C43442049443A25780D0A88
:103DF00000000000FEF7E1FD0020FEF7DEFD0120DF
:103E0000FEF7DBFD3F20FEF7D8FD2A20FEF7CCFDB4
:103E10000020FEF7D2FD0020FEF7CFFD0020FEF7C8
:103E2000CCFDEF20FEF7C9FD1120FEF7BDFD782087
:103E300007F09EFF2920FEF7B7FD03F01DB9FE48ED
:103E4000808846F6040188427ED11120FEF7ACFD41
:103E5000142007F08DFFD020FEF7A6FD0720FEF707
:103E6000ACFD4220FEF7A9FD1D20FEF7A6FDD120E6
:103E7000FEF79AFD0020FEF7A0FD1A20FEF79DFD3B
:103E80000920FEF79AFDD220FEF78EFD0120FEF7F5
:103E900094FD2220FEF791FDC020FEF785FD102045
:103EA000FEF78BFD3B20FEF788FD0020FEF785FD29
:103EB0000220FEF782FD1120FEF77FFDC520FEF7F0
:103EC00073FD0320FEF779FDC820FEF76DFD00208D
:103ED000FEF773FD2520FEF770FD2120FEF76DFD36
:103EE0000520FEF76AFD0020FEF767FD0A20FEF7B9
:103EF00064FD6520FEF761FD2520FEF75EFD77205D
:103F0000FEF75BFD5020FEF758FD0F20FEF755FD34
:103F10000020FEF752FDF820FEF746FD0120FEF7D7
:103F20004CFDFE20FEF740FD0020FEF746FD02207E
:103F3000FEF743FD2020FEF737FD3620FEF734FD67
:103F40000820FEF73AFD00E02AE03A20FEF72CFDBB
:103F50005520FEF732FD2B20FEF726FD0020FEF750
:103F60002CFD0020FEF729FD0120FEF726FD3F2055
:103F7000FEF723FD2A20FEF717FD0020FEF71DFDAA
:103F80000020FEF71AFD0120FEF717FDDF20FEF7E7
:103F900014FD782007F0ECFE2920FEF705FD4CE724
:103FA000A548808845F21031884240F07C87ED209A
:103FB000FEF7FAFC0120FEF700FDFE20FEF7FDFCF7
:103FC000EE20FEF7F1FCDE20FEF7F7FC2120FEF7E5
:103FD000F4FCF120FEF7E8FC0120FEF7EEFCDF2008
:103FE000FEF7E2FC1020FEF7E8FCC420FEF7DCFC44
:103FF0008F20FEF7E2FCC620FEF7D6FC0020FEF77D
:10400000DCFCE220FEF7D9FCE220FEF7D6FCE22041
:10401000FEF7D3FCBF20FEF7C7FCAA20FEF7CDFCBD
:10402000B020FEF7C1FC0D20FEF7C7FC0020FEF714
:10403000C4FC0D20FEF7C1FC0020FEF7BEFC1120E1
:10404000FEF7BBFC0020FEF7B8FC1920FEF7B5FC1C
:104050000020FEF7B2FC2120FEF7AFFC0020FEF7A7
:10406000ACFC2D20FEF7A9FC0020FEF7A6FC3D20AD
:10407000FEF7A3FC0020FEF7A0FC5D20FEF79DFCF0
:104080000020FEF79AFC5D20FEF797FC0020FEF76B
:1040900094FCB120FEF788FC8020FEF78EFC002007
:1040A000FEF78BFC8B20FEF788FC0020FEF785FCDA
:1040B0009620FEF782FC0020FEF77FFCB220FEF780
:1040C00073FC0020FEF779FC0020FEF776FC02204E
:1040D000FEF773FC0020FEF770FC0320FEF76DFC7A
:1040E0000020FEF76AFCB320FEF75EFC0020FEF71E
:1040F00064FC0020FEF761FC0020FEF75EFC00205F
:10410000FEF75BFC0020FEF758FC0020FEF755FC94
:104110000020FEF752FC0020FEF74FFC0020FEF7C7
:104120004CFC0020FEF749FC0020FEF746FC002076
:10413000FEF743FC0020FEF740FC0020FEF73DFCAC
:104140000020FEF73AFC0020FEF737FC0020FEF7C7
:1041500034FC0020FEF731FC0020FEF72EFC00208E
:10416000FEF72BFC0020FEF728FC0020FEF725FCC4
:104170000020FEF722FC0020FEF71FFCB420FEF713
:1041800013FC8B20FEF719FC0020FEF716FC96208E
:10419000FEF713FC0020FEF710FCA120FEF70DFC3B
:1041A0000020FEF70AFCB520FEF7FEFB0220FEF71A
:1041B00004FC0020FEF701FC0320FEF7FEFB0020BC
:1041C000FEF7FBFB0420FEF7F8FB0020FEF7F5FBF3
:1041D000B620FEF7E9FB0020FEF7EFFB0020FEF71C
:1041E000ECFBB720FEF7E0FB0020FEF7E6FB00202B
:1041F000FEF7E3FB3F20FEF7E0FB0020FEF7DDFBD0
:104200005E20FEF7DAFB0020FEF7D7FB6420FEF706
:10421000D4FB0020FEF7D1FB8C20FEF7CEFB002064
:10422000FEF7CBFBAC20FEF7C8FB0020FEF7C5FB7A
:10423000DC20FEF7C2FB01E0CC0300200020FEF7EB
:10424000BCFB7020FEF7B9FB0020FEF7B6FB902008
:10425000FEF7B3FB0020FEF7B0FBEB20FEF7ADFB53
:104260000020FEF7AAFBDC20FEF7A7FB0020FEF7EC
:10427000A4FBB820FEF798FB0020FEF79EFB002071
:10428000FEF79BFB0020FEF798FB0020FEF795FB56
:104290000020FEF792FB0020FEF78FFB0020FEF7C8
:1042A0008CFB0020FEF789FBBA20FEF77DFB242063
:1042B000FEF783FB0020FEF780FB0020FEF77DFB6E
:1042C0000020FEF77AFBC120FEF76EFB2020FEF7F0
:1042D00074FB0020FEF771FB5420FEF76EFB0020FC
:1042E000FEF76BFBFF20FEF768FB0020FEF765FB87
:1042F000C220FEF759FB0A20FEF75FFB0020FEF705
:104300005CFB0420FEF759FB0020FEF756FBC320A0
:10431000FEF74AFB3C20FEF750FB0020FEF74DFB6A
:104320003A20FEF74AFB0020FEF747FB3920FEF754
:1043300044FB0020FEF741FB3720FEF73EFB002048
:10434000FEF73BFB3C20FEF738FB0020FEF735FB79
:104350003620FEF732FB0020FEF72FFB3220FEF75F
:104360002CFB0020FEF729FB2F20FEF726FB002068
:10437000FEF723FB2C20FEF720FB0020FEF71DFBA1
:104380002920FEF71AFB0020FEF717FB2620FEF778
:1043900014FB0020FEF711FB2420FEF70EFB00208B
:1043A000FEF70BFB2420FEF708FB0020FEF705FBC1
:1043B0002320FEF702FB0020FEF7FFFA3C20FEF769
:1043C000FCFA0020FEF7F9FA3620FEF7F6FA002094
:1043D000FEF7F3FA3220FEF7F0FA0020FEF7EDFACE
:1043E0002F20FEF7EAFA0020FEF7E7FA2C20FEF76E
:1043F000E4FA0020FEF7E1FA2920FEF7DEFA0020B9
:10440000FEF7DBFA2620FEF7D8FA0020FEF7D5FAF1
:104410002420FEF7D2FA0020FEF7CFFA2420FEF780
:10442000CCFA0020FEF7C9FA2320FEF7C6FA0020D6
:10443000FEF7C3FAC420FEF7B7FA6220FEF7BDFA12
:104440000020FEF7BAFA0520FEF7B7FA0020FEF7C3
:10445000B4FA8420FEF7B1FA0020FEF7AEFAF0209D
:10446000FEF7ABFA0020FEF7A8FA1820FEF7A5FA2F
:104470000020FEF7A2FAA420FEF79FFA0020FEF724
:104480009CFA1820FEF799FA0020FEF796FA5020C1
:10449000FEF793FA0020FEF790FA0C20FEF78DFA53
:1044A0000020FEF78AFA1720FEF787FA0020FEF7B1
:1044B00084FA9520FEF781FA0020FEF77EFAF320B9
:1044C000FEF77BFA0020FEF778FAE620FEF775FA91
:1044D0000020FEF772FAC520FEF766FA3220FEF7DA
:1044E0006CFA0020FEF769FA4420FEF766FA002015
:1044F000FEF763FA6520FEF760FA0020FEF75DFA2A
:104500007620FEF75AFA0020FEF757FA8820FEF7C9
:1045100054FA0020FEF751FAC620FEF745FA202093
:10452000FEF74BFA0020FEF748FA1720FEF745FA8F
:104530000020FEF742FA0120FEF73FFA0020FEF7C6
:104540003CFAC720FEF730FA0020FEF736FA0020CA
:10455000FEF733FA0020FEF730FA0020FEF72DFABE
:10456000C820FEF721FA0020FEF727FA0020FEF708
:1045700024FA0020FEF721FA0020FEF71EFAC920D7
:10458000FEF712FA0020FEF718FA0020FEF715FADF
:104590000020FEF712FA0020FEF70FFA0020FEF7C7
:1045A0000CFA0020FEF709FA0020FEF706FA0020B8
:1045B000FEF703FA0020FEF700FA0020FEF7FDF9EF
:1045C0000020FEF7FAF90020FEF7F7F90020FEF7C9
:1045D000F4F90020FEF7F1F90020FEF7EEF90020D3
:1045E000FEF7EBF9E020FEF7DFF91620FEF7E5F91C
:1045F0000020FEF7E2F91C20FEF7DFF90020FEF7AD
:10460000DCF92120FEF7D9F90020FEF7D6F9362093
:10461000FEF7D3F90020FEF7D0F94620FEF7CDF9DA
:104620000020FEF7CAF95220FEF7C7F90020FEF776
:10463000C4F96420FEF7C1F90020FEF7BEF97A2024
:10464000FEF7BBF90020FEF7B8F98B20FEF7B5F9AD
:104650000020FEF7B2F99920FEF7AFF90020FEF72F
:10466000ACF9A820FEF7A9F90020FEF7A6F9B920B9
:10467000FEF7A3F90020FEF7A0F9C420FEF79DF98C
:104680000020FEF79AF9CA20FEF797F90020FEF7FE
:1046900094F9D220FEF791F90020FEF78EF9D92087
:1046A000FEF78BF90020FEF788F9E020FEF785F988
:1046B0000020FEF782F9F320FEF77FF90020FEF7D5
:1046C0007CF9E120FEF770F91620FEF776F900205C
:1046D000FEF773F91C20FEF770F90020FEF76DF964
:1046E0002220FEF76AF90020FEF767F93620FEF770
:1046F00064F90020FEF761F94520FEF75EF900201D
:10470000FEF75BF95220FEF758F90020FEF755F945
:104710006420FEF752F90020FEF74FF97A20FEF7E9
:104720004CF90020FEF749F98B20FEF746F90020EE
:10473000FEF743F99920FEF740F90020FEF73DF916
:10474000A820FEF73AF90020FEF737F9B920FEF766
:1047500034F90020FEF731F9C420FEF72EF90020CD
:10476000FEF72BF9CA20FEF728F90020FEF725F9FD
:10477000D220FEF722F90020FEF71FF9D820FEF71D
:104780001CF90020FEF719F9E020FEF716F90020C9
:10479000FEF713F9F320FEF710F90020FEF70DF9EC
:1047A000E220FEF701F90520FEF707F90020FEF7E9
:1047B00004F90B20FEF701F90020FEF7FEF81B209C
:1047C000FEF7FBF80020FEF7F8F83420FEF7F5F8C6
:1047D0000020FEF7F2F84420FEF7EFF80020FEF785
:1047E000ECF84F20FEF7E9F80020FEF7E6F861202C
:1047F000FEF7E3F80020FEF7E0F87920FEF7DDF899
:104800000020FEF7DAF88820FEF7D7F80020FEF740
:10481000D4F89720FEF7D1F80020FEF7CEF8A620B6
:10482000FEF7CBF80020FEF7C8F8B720FEF7C5F872
:104830000020FEF7C2F8C220FEF7BFF80020FEF706
:10484000BCF8C720FEF7B9F80020FEF7B6F8D12073
:10485000FEF7B3F80020FEF7B0F8D620FEF7ADF86B
:104860000020FEF7AAF8DD20FEF7A7F80020FEF7EB
:10487000A4F8F320FEF7A1F80020FEF79EF8E3204D
:10488000FEF792F80520FEF798F80020FEF795F85D
:104890000A20FEF792F80020FEF78FF81C20FEF7A2
:1048A0008CF80020FEF789F83320FEF786F8002008
:1048B000FEF783F84420FEF780F80020FEF77DF82D
:1048C0005020FEF77AF80020FEF777F86220FEF716
:1048D00074F80020FEF771F87820FEF76EF80020DB
:1048E000FEF76BF88820FEF768F80020FEF765F801
:1048F0009720FEF762F80020FEF75FF8A620FEF78B
:104900005CF80020FEF759F8B720FEF756F80020B3
:10491000FEF753F8C220FEF750F80020FEF74DF8DE
:10492000C720FEF74AF80020FEF747F8D120FEF72F
:1049300044F80020FEF741F8D520FEF73EF80020AD
:10494000FEF73BF8DD20FEF738F80020FEF735F8DB
:10495000F320FEF732F80020FEF72FF8E420FEF7F0
:1049600023F80120FEF729F80020FEF726F80120A1
:10497000FEF723F80020FEF720F80220FEF71DF8CE
:104980000020FEF71AF82A20FEF717F80020FEF79D
:1049900014F83C20FEF711F80020FEF70EF84B202B
:1049A000FEF70BF80020FEF708F85D20FEF705F88B
:1049B0000020FEF702F87420FDF7FFFF0020FDF74E
:1049C000FCFF8420FDF7F9FF0020FDF7F6FF9320A0
:1049D000FDF7F3FF0020FDF7F0FFA220FDF7EDFF4C
:1049E0000020FDF7EAFFB320FDF7E7FF0020FDF709
:1049F000E4FFBE20FDF7E1FF0020FDF7DEFFC4204D
:104A0000FDF7DBFF0020FDF7D8FFCD20FDF7D5FF38
:104A10000020FDF7D2FFD320FDF7CFFF0020FDF7E8
:104A2000CCFFDD20FDF7C9FF0020FDF7C6FFF32016
:104A3000FDF7C3FF0020FDF7C0FFE520FDF7B4FF41
:104A40000020FDF7BAFF0020FDF7B7FF0020FDF7BB
:104A5000B4FF0020FDF7B1FF0220FDF7AEFF0020FC
:104A6000FDF7ABFF2920FDF7A8FF0020FDF7A5FF0C
:104A70003C20FDF7A2FF0020FDF79FFF4B20FDF734
:104A80009CFF0020FDF799FF5D20FDF796FF0020B9
:104A9000FDF793FF7420FDF790FF0020FDF78DFFD9
:104AA0008420FDF78AFF0020FDF787FF9320FDF7A4
:104AB00084FF0020FDF781FFA220FDF77EFF00208C
:104AC000FDF77BFFB320FDF778FF0020FDF775FFB2
:104AD000BE20FDF772FF0020FDF76FFFC420FDF739
:104AE0006CFF0020FDF769FFCD20FDF766FF002079
:104AF000FDF763FFD320FDF760FF0020FDF75DFFAA
:104B0000DC20FDF75AFF0020FDF757FFF320FDF7EB
:104B100054FF0020FDF751FFE620FDF745FF11206F
:104B2000FDF74BFF0020FDF748FF3420FDF745FF60
:104B30000020FDF742FF5620FDF73FFF0020FDF764
:104B40003CFF7620FDF739FF0020FDF736FF772088
:104B5000FDF733FF0020FDF730FF6620FDF72DFF46
:104B60000020FDF72AFF8820FDF727FF0020FDF732
:104B700024FF9920FDF721FF0020FDF71EFFBB2039
:104B8000FDF71BFF0020FDF718FF9920FDF715FF2B
:104B90000020FDF712FF6620FDF70FFF0020FDF754
:104BA0000CFF5520FDF709FF0020FDF706FF5520FB
:104BB000FDF703FF0020FDF700FF4520FDF7FDFE98
:104BC0000020FDF7FAFE4320FDF7F7FE0020FDF779
:104BD000F4FE4420FDF7F1FE0020FDF7EEFEE72095
:104BE000FDF7E2FE3220FDF7E8FE0020FDF7E5FECE
:104BF0005520FDF7E2FE0020FDF7DFFE7620FDF7F1
:104C0000DCFE0020FDF7D9FE6620FDF7D6FE002071
:104C1000FDF7D3FE6720FDF7D0FE0020FDF7CDFEA7
:104C20006720FDF7CAFE0020FDF7C7FE8720FDF7CD
:104C3000C4FE0020FDF7C1FE9920FDF7BEFE002056
:104C4000FDF7BBFEBB20FDF7B8FE0020FDF7B5FE6B
:104C50009920FDF7B2FE0020FDF7AFFE7720FDF7AB
:104C6000ACFE0020FDF7A9FE4420FDF7A6FE0020C3
:104C7000FDF7A3FE5620FDF7A0FE0020FDF79DFEE8
:104C80002320FDF79AFE0020FDF797FE3320FDF765
:104C900094FE0020FDF791FE4520FDF78EFE0020DA
:104CA000FDF78BFEE820FDF77FFE0020FDF785FE77
:104CB0000020FDF782FE9920FDF77FFE0020FDF722
:104CC0007CFE8720FDF779FE0020FDF776FE882028
:104CD000FDF773FE0020FDF770FE7720FDF76DFEF7
:104CE0000020FDF76AFE6620FDF767FE0020FDF755
:104CF00064FE8820FDF761FE0020FDF75EFEAA201D
:104D0000FDF75BFE0020FDF758FEBB20FDF755FECA
:104D10000020FDF752FE9920FDF74FFE0020FDF721
:104D20004CFE6620FDF749FE0020FDF746FE5520AB
:104D3000FDF743FE0020FDF740FE5520FDF73DFE48
:104D40000020FDF73AFE4420FDF737FE0020FDF776
:104D500034FE4420FDF731FE0020FDF72EFE5520E5
:104D6000FDF72BFE0020FDF728FEE920FDF71CFED5
:104D7000AA20FDF722FE0020FDF71FFE0020FDF710
:104D80001CFE0020FDF719FE0020FDF70DFEAA20F5
:104D9000FDF713FECF20FDF707FE0020FDF70DFE07
:104DA0000020FDF70AFE0020FDF707FE0020FDF7BA
:104DB00004FE0020FDF701FE0020FDF7FEFD0020AF
:104DC000FDF7FBFD0020FDF7F8FD0020FDF7F5FDE8
:104DD0000020FDF7F2FD0020FDF7EFFD0020FDF7BC
:104DE000ECFD0020FDF7E9FD0020FDF7E6FD0020C9
:104DF000FDF7E3FD0020FDF7E0FD0020FDF7DDFD00
:104E0000F020FDF7D1FD0020FDF7D7FD5020FDF784
:104E1000D4FD0020FDF7D1FD0020FDF7CEFD0020E0
:104E2000FDF7CBFDF320FDF7BFFD0020FDF7C5FD2D
:104E3000F920FDF7B9FD0620FDF7BFFD1020FDF7B5
:104E4000BCFD2920FDF7B9FD0020FDF7B6FD3A2095
:104E5000FDF7AAFD5520FDF7B0FD1120FDF7A4FDDB
:104E6000642006F085FF2920FDF79EFD3520FDF723
:104E70009BFD0020FDF7A1FD5120FDF795FDFF20D2
:104E8000FDF79BFD5320FDF78FFD2C20FDF795FDD1
:104E90005520FDF789FD8220FDF78FFD2C20FDF7C1
:104EA00083FD02F0E9B8FE48808845F2105188423F
:104EB0007ED155214FF47040FDF791FDAA214FF2AC
:104EC0000100FDF78CFD52214FF20200FDF787FD36
:104ED00008214FF20300FDF782FD01214FF204008B
:104EE000FDF77DFD0D214FF43040FDF778FD0D21DC
:104EF0004BF20100FDF773FD0D214BF20200FDF7AF
:104F00006EFD34214FF43640FDF769FD34214BF23C
:104F10000160FDF764FD34214BF20260FDF75FFD97
:104F20000D214FF43140FDF75AFD0D214BF20110D8
:104F3000FDF755FD0D214BF20210FDF750FD342118
:104F40004FF43740FDF74BFD34214BF20170FDF774
:104F500046FD34214BF20270FDF741FD00214FF474
:104F60003240FDF73CFD00214BF20120FDF737FDFB
:104F700000214BF20220FDF732FD24214FF438408E
:104F8000FDF72DFD24214BF60100FDF728FD24211E
:104F90004BF60200FDF723FD01214FF43F40FDF7E2
:104FA0001EFD0F214FF43340FDF719FD0F2100E0E6
:104FB000FEE34BF20130FDF712FD0F214BF2023000
:104FC000FDF70DFD34214FF43940FDF708FD342184
:104FD0004BF60110FDF703FD34214BF60210FDF7EF
:104FE000FEFC08214FF43540FDF7F9FC08214BF297
:104FF0000150FDF7F4FC08214BF20250FDF7EFFCE5
:1050000003214FF44240FDF7EAFC24214FF43A40DB
:10501000FDF7E5FC24214BF60120FDF7E0FC2421FF
:105020004BF60220FDF7DBFC00214FF43C40FDF77E
:10503000D6FC78214BF60140FDF7D1FC00214BF660
:105040000240FDF7CCFC00214FF43D40FDF7C7FCCA
:1050500078214BF60150FDF7C2FC00214BF60250BF
:10506000FDF7BDFC00214FF43E40FDF7B8FC642184
:105070004BF60160FDF7B3FC00214FF45140FDF702
:10508000AEFC33214DF20110FDF7A9FC00214DF2D9
:105090000210FDF7A4FC34214DF20310FDF79FFC34
:1050A00000214DF20410FDF79AFC3A214DF2051053
:1050B000FDF795FC00214DF20610FDF790FC4A210A
:1050C0004DF20710FDF78BFC00214DF20810FDF7A3
:1050D00086FC5C214DF20910FDF781FC00214DF2A8
:1050E0000A10FDF77CFC81214DF20B10FDF777FCD7
:1050F00000214DF20C10FDF772FCA6214DF20D10AF
:10510000FDF76DFC00214DF20E10FDF768FCE52166
:105110004DF20F10FDF763FC01214DF21010FDF769
:105120005EFC13214DF21110FDF759FC01214DF2E7
:105130001210FDF754FC54214DF21310FDF74FFCF3
:1051400001214DF21410FDF74AFC82214DF2151099
:10515000FDF745FC01214DF21610FDF740FCCA2178
:105160004DF21710FDF73BFC02214DF21810FDF730
:1051700036FC00214DF21910FDF731FC02214DF2F1
:105180001A10FDF72CFC01214DF21B10FDF727FC36
:1051900002214DF21C10FDF722FC34214DF21D10AE
:1051A000FDF71DFC02214DF21E10FDF718FC6721D2
:1051B0004DF21F10FDF713FC02214DF22010FDF7F8
:1051C0000EFC84214DF22110FDF709FC02214DF265
:1051D0002210FDF704FCA4214DF22310FDF7FFFB84
:1051E00002214DF22410FDF7FAFBB7214DF22510F4
:1051F000FDF7F5FB02214DF22610FDF7F0FBCF2164
:105200004DF22710FDF7EBFB02214DF22810FDF7C0
:10521000E6FBDE214DF22910FDF7E1FB02214DF204
:105220002A10FDF7DCFBF2214DF22B10FDF7D7FB26
:1052300002214DF22C10FDF7D2FBFE214DF22D1074
:10524000FDF7CDFB03214DF22E10FDF7C8FB102119
:105250004DF22F10FDF7C3FB03214DF23010FDF787
:10526000BEFB33214DF23110FDF7B9FB03214DF2A6
:105270003210FDF7B4FB6D214DF23310FDF7AFFB9B
:1052800000214FF45240FDF7AAFB33214DF20120DB
:10529000FDF7A5FB00214DF20220FDF7A0FB01E088
:1052A000CC03002034214DF20320FDF798FB0021B0
:1052B0004DF20420FDF793FB3A214DF20520FDF756
:1052C0008EFB00214DF20620FDF789FB4A214DF2AD
:1052D0000720FDF784FB00214DF20820FDF77FFB3E
:1052E0005C214DF20920FDF77AFB00214DF20A20E6
:1052F000FDF775FB81214DF20B20FDF770FB0021BE
:105300004DF20C20FDF76BFBA6214DF20D20FDF7B1
:1053100066FB00214DF20E20FDF761FBE5214DF209
:105320000F20FDF75CFB01214DF21020FDF757FB2C
:1053300013214DF21120FDF752FB01214DF21220F5
:10534000FDF74DFB54214DF21320FDF748FB0121E1
:105350004DF21420FDF743FB82214DF21520FDF79D
:105360003EFB01214DF21620FDF739FBCA214DF21B
:105370001720FDF734FB02214DF21820FDF72FFB1B
:1053800000214DF21920FDF72AFB02214DF21A20CF
:10539000FDF725FB01214DF21B20FDF720FB02212B
:1053A0004DF21C20FDF71BFB34214DF21D20FDF7B3
:1053B00016FB02214DF21E20FDF711FB67214DF275
:1053C0001F20FDF70CFB02214DF22020FDF707FB0B
:1053D00084214DF22120FDF702FB02214DF2222013
:1053E000FDF7FDFAA4214DF22320FDF7F8FA022182
:1053F0004DF22420FDF7F3FAB7214DF22520FDF7F9
:10540000EEFA02214DF22620FDF7E9FACF214DF206
:105410002720FDF7E4FA02214DF22820FDF7DFFAFC
:10542000DE214DF22920FDF7DAFA02214DF22A2081
:10543000FDF7D5FAF2214DF22B20FDF7D0FA02212B
:105440004DF22C20FDF7CBFAFE214DF22D20FDF779
:10545000C6FA03214DF22E20FDF7C1FA10214DF2BC
:105460002F20FDF7BCFA03214DF23020FDF7B7FAEB
:1054700033214DF23120FDF7B2FA03214DF23220F3
:10548000FDF7ADFA6D214DF23320FDF7A8FA0021AA
:105490004FF45340FDF7A3FA33214DF20130FDF7ED
:1054A0009EFA00214DF20230FDF799FA34214DF2B7
:1054B0000330FDF794FA00214DF20430FDF78FFA26
:1054C0003A214DF20530FDF78AFA00214DF20630FF
:1054D000FDF785FA4A214DF20730FDF780FA0021E9
:1054E0004DF20830FDF77BFA5C214DF20930FDF7F3
:1054F00076FA00214DF20A30FDF771FA81214DF262
:105500000B30FDF76CFA00214DF20C30FDF767FA15
:10551000A6214DF20D30FDF762FA00214DF20E305A
:10552000FDF75DFAE5214DF20F30FDF758FA012144
:105530004DF21030FDF753FA13214DF21130FDF703
:105540004EFA01214DF21230FDF749FA54214DF285
:105550001330FDF744FA01214DF21430FDF73FFA04
:1055600082214DF21530FDF73AFA01214DF2163045
:10557000FDF735FACA214DF21730FDF730FA022156
:105580004DF21830FDF72BFA00214DF21930FDF7DE
:1055900026FA02214DF21A30FDF721FA01214DF2CF
:1055A0001B30FDF71CFA02214DF21C30FDF717FAF3
:1055B00034214DF21D30FDF712FA02214DF21E305A
:1055C000FDF70DFA67214DF21F30FDF708FA0221B1
:1055D0004DF22030FDF703FA84214DF22130FDF722
:1055E000FEF902214DF22230FDF7F9F9A4214DF226
:1055F0002330FDF7F4F902214DF22430FDF7EFF9E5
:10560000B7214DF22530FDF7EAF902214DF226309F
:10561000FDF7E5F9CF214DF22730FDF7E0F9022142
:105620004DF22830FDF7DBF9DE214DF22930FDF790
:10563000D6F902214DF22A30FDF7D1F9F2214DF2CF
:105640002B30FDF7CCF902214DF22C30FDF7C7F9D4
:10565000FE214DF22D30FDF7C2F903214DF22E301F
:10566000FDF7BDF910214DF22F30FDF7B8F90321F8
:105670004DF23030FDF7B3F933214DF23130FDF703
:10568000AEF903214DF23230FDF7A9F96D214DF24B
:105690003330FDF7A4F900214FF45440FDF79FF992
:1056A00033214DF20140FDF79AF900214DF20240FD
:1056B000FDF795F934214DF20340FDF790F90021F3
:1056C0004DF20440FDF78BF93A214DF20540FDF70C
:1056D00086F900214DF20640FDF781F94A214DF28D
:1056E0000740FDF77CF900214DF20840FDF777F9FE
:1056F0005C214DF20940FDF772F900214DF20A409C
:10570000FDF76DF981214DF20B40FDF768F900219D
:105710004DF20C40FDF763F9A6214DF20D40FDF767
:105720005EF900214DF20E40FDF759F9E5214DF2E9
:105730000F40FDF754F901214DF21040FDF74FF9EC
:1057400013214DF21140FDF74AF901214DF21240AB
:10575000FDF745F954214DF21340FDF740F90121C1
:105760004DF21440FDF73BF982214DF21540FDF753
:1057700036F901214DF21640FDF731F9CA214DF2FB
:105780001740FDF72CF902214DF21840FDF727F9DB
:1057900000214DF21940FDF722F902214DF21A4085
:1057A000FDF71DF901214DF21B40FDF718F900E04E
:1057B00004E302214DF21C40FDF711F934214DF2B2
:1057C0001D40FDF70CF902214DF21E40FDF707F9CF
:1057D00067214DF21F40FDF702F902214DF22040F2
:1057E000FDF7FDF884214DF22140FDF7F8F8022184
:1057F0004DF22240FDF7F3F8A4214DF22340FDF7CE
:10580000EEF802214DF22440FDF7E9F8B7214DF200
:105810002540FDF7E4F802214DF22640FDF7DFF8C0
:10582000CF214DF22740FDF7DAF802214DF2284052
:10583000FDF7D5F8DE214DF22940FDF7D0F8022121
:105840004DF22A40FDF7CBF8F2214DF22B40FDF747
:10585000C6F802214DF22C40FDF7C1F8FE214DF2B1
:105860002D40FDF7BCF803214DF22E40FDF7B7F8AF
:1058700010214DF22F40FDF7B2F803214DF23040D8
:10588000FDF7ADF833214DF23140FDF7A8F80321C3
:105890004DF23240FDF7A3F86D214DF23340FDF794
:1058A0009EF800214FF45540FDF799F833214DF251
:1058B0000150FDF794F800214DF20250FDF78FF8EA
:1058C00034214DF20350FDF78AF800214DF20450C7
:1058D000FDF785F83A214DF20550FDF780F80021DB
:1058E0004DF20650FDF77BF84A214DF20750FDF7C7
:1058F00076F800214DF20850FDF771F85C214DF269
:105900000950FDF76CF800214DF20A50FDF767F8D9
:1059100081214DF20B50FDF762F800214DF20C5041
:10592000FDF75DF8A6214DF20D50FDF758F8002166
:105930004DF20E50FDF753F8E5214DF20F50FDF7F3
:105940004EF801214DF21050FDF749F813214DF2A8
:105950001150FDF744F801214DF21250FDF73FF8C8
:1059600054214DF21350FDF73AF801214DF2145035
:10597000FDF735F882214DF21550FDF730F8012181
:105980004DF21650FDF72BF8CA214DF21750FDF7D6
:1059900026F802214DF21850FDF721F800214DF2B2
:1059A0001950FDF71CF802214DF21A50FDF717F8B7
:1059B00001214DF21B50FDF712F802214DF21C504F
:1059C000FDF70DF834214DF21D50FDF708F80221C6
:1059D0004DF21E50FDF703F867214DF21F50FCF702
:1059E000FEFF02214DF22050FCF7F9FF84214DF219
:1059F0002150FCF7F4FF02214DF22250FCF7EFFF9B
:105A0000A4214DF22350FCF7EAFF02214DF224506D
:105A1000FCF7E5FFB7214DF22550FCF7E0FF02212E
:105A20004DF22650FCF7DBFFCF214DF22750FCF75B
:105A3000D6FF02214DF22850FCF7D1FFDE214DF2B6
:105A40002950FCF7CCFF02214DF22A50FCF7C7FF8A
:105A5000F2214DF22B50FCF7C2FF02214DF22C50E7
:105A6000FCF7BDFFFE214DF22D50FCF7B8FF0321DE
:105A70004DF22E50FCF7B3FF10214DF22F50FCF7E2
:105A8000AEFF03214DF23050FCF7A9FF33214DF258
:105A90003150FCF7A4FF03214DF23250FCF79FFF79
:105AA0006D214DF23350FCF79AFF00214FF4564020
:105AB000FCF795FF33214DF20160FCF790FF0021C8
:105AC0004DF20260FCF78BFF34214DF20360FCF7CE
:105AD00086FF00214DF20460FCF781FF3A214DF270
